{
  "_format": "hh-sol-artifact-1",
  "contractName": "Verifier",
  "sourceName": "contracts/Verifier.sol",
  "abi": [
    {
      "inputs": [
        {
          "internalType": "uint256[2]",
          "name": "a",
          "type": "uint256[2]"
        },
        {
          "internalType": "uint256[2][2]",
          "name": "b",
          "type": "uint256[2][2]"
        },
        {
          "internalType": "uint256[2]",
          "name": "c",
          "type": "uint256[2]"
        },
        {
          "internalType": "uint256[9]",
          "name": "input",
          "type": "uint256[9]"
        }
      ],
      "name": "verifyProof",
      "outputs": [
        {
          "internalType": "bool",
          "name": "r",
          "type": "bool"
        }
      ],
      "stateMutability": "view",
      "type": "function"
    }
  ],
  "bytecode": "0x608060405234801561001057600080fd5b50611e33806100206000396000f3fe608060405234801561001057600080fd5b506004361061002b5760003560e01c8063c542c93b14610030575b600080fd5b61004a600480360381019061004591906118da565b610060565b604051610057919061195e565b60405180910390f35b600061006a6114aa565b60405180604001604052808760006002811061008957610088611979565b5b60200201518152602001876001600281106100a7576100a6611979565b5b6020020151815250816000018190525060405180604001604052806040518060400160405280886000600281106100e1576100e0611979565b5b60200201516000600281106100f9576100f8611979565b5b602002015181526020018860006002811061011757610116611979565b5b602002015160016002811061012f5761012e611979565b5b6020020151815250815260200160405180604001604052808860016002811061015b5761015a611979565b5b602002015160006002811061017357610172611979565b5b602002015181526020018860016002811061019157610190611979565b5b60200201516001600281106101a9576101a8611979565b5b602002015181525081525081602001819052506040518060400160405280856000600281106101db576101da611979565b5b60200201518152602001856001600281106101f9576101f8611979565b5b602002015181525081604001819052506000600967ffffffffffffffff81111561022657610225611611565b5b6040519080825280602002602001820160405280156102545781602001602082028036833780820191505090505b50905060005b60098110156102ad5784816009811061027657610275611979565b5b602002015182828151811061028e5761028d611979565b5b60200260200101818152505080806102a5906119d7565b91505061025a565b5060006102ba82846102da565b14156102cb576001925050506102d2565b6000925050505b949350505050565b6000807f30644e72e131a029b85045b68181585d2833e84879b9709143e1f593f00000019050600061030a6104cd565b9050806080015151600186516103209190611a20565b14610360576040517f08c379a000000000000000000000000000000000000000000000000000000000815260040161035790611ad3565b60405180910390fd5b60006040518060400160405280600081526020016000815250905060005b865181101561044f578387828151811061039b5761039a611979565b5b6020026020010151106103e3576040517f08c379a00000000000000000000000000000000000000000000000000000000081526004016103da90611b3f565b60405180910390fd5b61043a8261043585608001516001856103fc9190611a20565b8151811061040d5761040c611979565b5b60200260200101518a858151811061042857610427611979565b5b6020026020010151610c91565b610d6e565b91508080610447906119d7565b91505061037e565b5061047981836080015160008151811061046c5761046b611979565b5b6020026020010151610d6e565b90506104af61048b8660000151610e71565b8660200151846000015185602001518587604001518b604001518960600151610f16565b6104bf57600193505050506104c7565b600093505050505b92915050565b6104d56114dd565b60405180604001604052807f18a2ad5d2a59e9ea0c4ede1e9d38ecca0ab4cd9d8e1c208c4836fc523ea2c40281526020017f153fd4fb3b15ba53d5304e0a49e7c4134c25949e258fe6a018f98999dda72acb8152508160000181905250604051806040016040528060405180604001604052807f20bbf10e59c71c627278bdbb7967c91f89a9f3cb6b0f133bea3e4dd793d0aab881526020017f2516cb603b9aacf4fcc788bf8f95e21e5bea6f47cf457b427c6afba2f871ed97815250815260200160405180604001604052807f2363ac376e3616c04805e990fedda0124490849a370e1a9d48c179c97dba8ec281526020017f0fa0fa49b037c377e903ef8421d3c963efd53d8240a0c57937f91d556eb0a1db8152508152508160200181905250604051806040016040528060405180604001604052807f198e9393920d483a7260bfb731fb5d25f1aa493335a9e71297e485b7aef312c281526020017f1800deef121f1e76426a00665e5c4479674322d4f75edadd46debd5cd992f6ed815250815260200160405180604001604052807f090689d0585ff075ec9e99ad690c3395bc4b313370b38ef355acdadcd122975b81526020017f12c85ea5db8c6deb4aab71808dcb408fe3d1e7690c43d37b4ce6cc0166fa7daa8152508152508160400181905250604051806040016040528060405180604001604052807f24e771286ff2b178dd0e18c9becc2d62ad90654c28a34446e0df78b9b10dc90881526020017f1389e055f08db69912a9712240cb06c124a68de015bc18824c1735af75ededa1815250815260200160405180604001604052807f2c381c391ce835a78147c2b1593ee51570cd023056675e20744121455278606181526020017f2cfadacadf90dc64b737f686822596e7bdbfaa15b819b2f568ff174321f0b8a38152508152508160600181905250600a67ffffffffffffffff81111561079c5761079b611611565b5b6040519080825280602002602001820160405280156107d557816020015b6107c2611524565b8152602001906001900390816107ba5790505b50816080018190525060405180604001604052807f1be1dc2c44d0d14ad48b8052db8add77bc8cbcc8cdd2d2737241920cbebdff5f81526020017f273889d6503281d96a16016a7fa5471b98a23f3a27bee6f1b1615c7f727b7e13815250816080015160008151811061084b5761084a611979565b5b602002602001018190525060405180604001604052807f2417812f4b2f56bb343c8008195ab818e874daf616584894cbfcafcd0bc49e4c81526020017f1b9809988c14e58368f16828613cc21a747f8ca4fb46232b50133fdaa731169d81525081608001516001815181106108c3576108c2611979565b5b602002602001018190525060405180604001604052807f2a6d4cd29105749034caa874ba5411e79afefd885f42b3d0e86b0487aa9a739e81526020017f242aa271aa83727768b523e9ea71f3cd54f2a8744a42032d705227694bead396815250816080015160028151811061093b5761093a611979565b5b602002602001018190525060405180604001604052807f133c2555a9626e9ccc37385b5a0d7e40f7301b17b2ed253f1d8bc6a1a50f404681526020017f230f030f37e3bf950aa41531e55c15660045808d9aae2545b393cde9ace069d481525081608001516003815181106109b3576109b2611979565b5b602002602001018190525060405180604001604052807f18f675a87fd610195fb02de5633822a28df5c00c308b915d3818541ca2b7dacc81526020017f22b223e14d2ef396f1477c22a638f0d499d7423f4e08a54b62aea596d785b2e78152508160800151600481518110610a2b57610a2a611979565b5b602002602001018190525060405180604001604052807f13fef3be3aee0bbf43777198474f33325ef5a26df8ae81131cb547c4048e872281526020017f2f8d0e602ea9c9feffa17b88edd78cde937d9867ed3e4660622a888531795fb88152508160800151600581518110610aa357610aa2611979565b5b602002602001018190525060405180604001604052807f0e1fe76bb3cc4d434b94ef289d05abf7431c4e537783d8e4ed015839d3eb693581526020017f181c3fc3294ecabdd9cb50b53ded569f25c710dca27f4da6129b51b69a1197958152508160800151600681518110610b1b57610b1a611979565b5b602002602001018190525060405180604001604052807f0dac03788394178ad3aada6de240f5e69a038c8f1357ac9e4bc255c17e20b26a81526020017f15cc3234ed21623297ebc910507c83f3de4c5901342d380fc706d8ed1bd8183b8152508160800151600781518110610b9357610b92611979565b5b602002602001018190525060405180604001604052807f21476a218053d95b4d05c6ad26170801dce97eca1ac32acadfc94867e74a782881526020017f0c8020360c6c20f9b22c723b68718d499687ccdefeada558a0cb49ac49e514158152508160800151600881518110610c0b57610c0a611979565b5b602002602001018190525060405180604001604052807f17eec49ee847a17198d8132f180e88c5c55239a51c23369b7545dad0369060c381526020017f05a477e22d9f7a63097e7a12555bc2f37e054e3c036d77442cb2e6c7ff65a3b08152508160800151600981518110610c8357610c82611979565b5b602002602001018190525090565b610c99611524565b610ca161153e565b836000015181600060038110610cba57610cb9611979565b5b602002018181525050836020015181600160038110610cdc57610cdb611979565b5b6020020181815250508281600260038110610cfa57610cf9611979565b5b602002018181525050600060608360808460076107d05a03fa90508060008114610d2357610d25565bfe5b5080610d66576040517f08c379a0000000000000000000000000000000000000000000000000000000008152600401610d5d90611bab565b60405180910390fd5b505092915050565b610d76611524565b610d7e611560565b836000015181600060048110610d9757610d96611979565b5b602002018181525050836020015181600160048110610db957610db8611979565b5b602002018181525050826000015181600260048110610ddb57610dda611979565b5b602002018181525050826020015181600360048110610dfd57610dfc611979565b5b602002018181525050600060608360c08460066107d05a03fa90508060008114610e2657610e28565bfe5b5080610e69576040517f08c379a0000000000000000000000000000000000000000000000000000000008152600401610e6090611c17565b60405180910390fd5b505092915050565b610e79611524565b60007f30644e72e131a029b85045b68181585d97816a916871ca8d3c208c16d87cfd47905060008360000151148015610eb6575060008360200151145b15610eda576040518060400160405280600081526020016000815250915050610f11565b604051806040016040528084600001518152602001828560200151610eff9190611c66565b83610f0a9190611c97565b8152509150505b919050565b600080600467ffffffffffffffff811115610f3457610f33611611565b5b604051908082528060200260200182016040528015610f6d57816020015b610f5a611524565b815260200190600190039081610f525790505b5090506000600467ffffffffffffffff811115610f8d57610f8c611611565b5b604051908082528060200260200182016040528015610fc657816020015b610fb3611582565b815260200190600190039081610fab5790505b5090508a82600081518110610fde57610fdd611979565b5b60200260200101819052508882600181518110610ffe57610ffd611979565b5b6020026020010181905250868260028151811061101e5761101d611979565b5b6020026020010181905250848260038151811061103e5761103d611979565b5b6020026020010181905250898160008151811061105e5761105d611979565b5b6020026020010181905250878160018151811061107e5761107d611979565b5b6020026020010181905250858160028151811061109e5761109d611979565b5b602002602001018190525083816003815181106110be576110bd611979565b5b60200260200101819052506110d382826110e3565b9250505098975050505050505050565b60008151835114611129576040517f08c379a000000000000000000000000000000000000000000000000000000000815260040161112090611d17565b60405180910390fd5b600083519050600060068261113e9190611d37565b905060008167ffffffffffffffff81111561115c5761115b611611565b5b60405190808252806020026020018201604052801561118a5781602001602082028036833780820191505090505b50905060005b8381101561140f578681815181106111ab576111aa611979565b5b6020026020010151600001518260006006846111c79190611d37565b6111d19190611a20565b815181106111e2576111e1611979565b5b60200260200101818152505086818151811061120157611200611979565b5b60200260200101516020015182600160068461121d9190611d37565b6112279190611a20565b8151811061123857611237611979565b5b60200260200101818152505085818151811061125757611256611979565b5b60200260200101516000015160006002811061127657611275611979565b5b602002015182600260068461128b9190611d37565b6112959190611a20565b815181106112a6576112a5611979565b5b6020026020010181815250508581815181106112c5576112c4611979565b5b6020026020010151600001516001600281106112e4576112e3611979565b5b60200201518260036006846112f99190611d37565b6113039190611a20565b8151811061131457611313611979565b5b60200260200101818152505085818151811061133357611332611979565b5b60200260200101516020015160006002811061135257611351611979565b5b60200201518260046006846113679190611d37565b6113719190611a20565b8151811061138257611381611979565b5b6020026020010181815250508581815181106113a1576113a0611979565b5b6020026020010151602001516001600281106113c0576113bf611979565b5b60200201518260056006846113d59190611d37565b6113df9190611a20565b815181106113f0576113ef611979565b5b6020026020010181815250508080611407906119d7565b915050611190565b506114186115a8565b6000602082602086026020860160086107d05a03fa9050806000811461143d5761143f565bfe5b5080611480576040517f08c379a000000000000000000000000000000000000000000000000000000000815260040161147790611ddd565b60405180910390fd5b60008260006001811061149657611495611979565b5b602002015114159550505050505092915050565b60405180606001604052806114bd611524565b81526020016114ca611582565b81526020016114d7611524565b81525090565b6040518060a001604052806114f0611524565b81526020016114fd611582565b815260200161150a611582565b8152602001611517611582565b8152602001606081525090565b604051806040016040528060008152602001600081525090565b6040518060600160405280600390602082028036833780820191505090505090565b6040518060800160405280600490602082028036833780820191505090505090565b60405180604001604052806115956115ca565b81526020016115a26115ca565b81525090565b6040518060200160405280600190602082028036833780820191505090505090565b6040518060400160405280600290602082028036833780820191505090505090565b6000604051905090565b600080fd5b600080fd5b6000601f19601f8301169050919050565b7f4e487b7100000000000000000000000000000000000000000000000000000000600052604160045260246000fd5b61164982611600565b810181811067ffffffffffffffff8211171561166857611667611611565b5b80604052505050565b600061167b6115ec565b90506116878282611640565b919050565b600067ffffffffffffffff8211156116a7576116a6611611565b5b602082029050919050565b600080fd5b6000819050919050565b6116ca816116b7565b81146116d557600080fd5b50565b6000813590506116e7816116c1565b92915050565b60006117006116fb8461168c565b611671565b9050806020840283018581111561171a576117196116b2565b5b835b81811015611743578061172f88826116d8565b84526020840193505060208101905061171c565b5050509392505050565b600082601f830112611762576117616115fb565b5b600261176f8482856116ed565b91505092915050565b600067ffffffffffffffff82111561179357611792611611565b5b602082029050919050565b60006117b16117ac84611778565b611671565b905080604084028301858111156117cb576117ca6116b2565b5b835b818110156117f457806117e0888261174d565b8452602084019350506040810190506117cd565b5050509392505050565b600082601f830112611813576118126115fb565b5b600261182084828561179e565b91505092915050565b600067ffffffffffffffff82111561184457611843611611565b5b602082029050919050565b600061186261185d84611829565b611671565b9050806020840283018581111561187c5761187b6116b2565b5b835b818110156118a5578061189188826116d8565b84526020840193505060208101905061187e565b5050509392505050565b600082601f8301126118c4576118c36115fb565b5b60096118d184828561184f565b91505092915050565b60008060008061022085870312156118f5576118f46115f6565b5b60006119038782880161174d565b9450506040611914878288016117fe565b93505060c06119258782880161174d565b925050610100611937878288016118af565b91505092959194509250565b60008115159050919050565b61195881611943565b82525050565b6000602082019050611973600083018461194f565b92915050565b7f4e487b7100000000000000000000000000000000000000000000000000000000600052603260045260246000fd5b7f4e487b7100000000000000000000000000000000000000000000000000000000600052601160045260246000fd5b60006119e2826116b7565b91507fffffffffffffffffffffffffffffffffffffffffffffffffffffffffffffffff821415611a1557611a146119a8565b5b600182019050919050565b6000611a2b826116b7565b9150611a36836116b7565b9250827fffffffffffffffffffffffffffffffffffffffffffffffffffffffffffffffff03821115611a6b57611a6a6119a8565b5b828201905092915050565b600082825260208201905092915050565b7f76657269666965722d6261642d696e7075740000000000000000000000000000600082015250565b6000611abd601283611a76565b9150611ac882611a87565b602082019050919050565b60006020820190508181036000830152611aec81611ab0565b9050919050565b7f76657269666965722d6774652d736e61726b2d7363616c61722d6669656c6400600082015250565b6000611b29601f83611a76565b9150611b3482611af3565b602082019050919050565b60006020820190508181036000830152611b5881611b1c565b9050919050565b7f70616972696e672d6d756c2d6661696c65640000000000000000000000000000600082015250565b6000611b95601283611a76565b9150611ba082611b5f565b602082019050919050565b60006020820190508181036000830152611bc481611b88565b9050919050565b7f70616972696e672d6164642d6661696c65640000000000000000000000000000600082015250565b6000611c01601283611a76565b9150611c0c82611bcb565b602082019050919050565b60006020820190508181036000830152611c3081611bf4565b9050919050565b7f4e487b7100000000000000000000000000000000000000000000000000000000600052601260045260246000fd5b6000611c71826116b7565b9150611c7c836116b7565b925082611c8c57611c8b611c37565b5b828206905092915050565b6000611ca2826116b7565b9150611cad836116b7565b925082821015611cc057611cbf6119a8565b5b828203905092915050565b7f70616972696e672d6c656e677468732d6661696c656400000000000000000000600082015250565b6000611d01601683611a76565b9150611d0c82611ccb565b602082019050919050565b60006020820190508181036000830152611d3081611cf4565b9050919050565b6000611d42826116b7565b9150611d4d836116b7565b9250817fffffffffffffffffffffffffffffffffffffffffffffffffffffffffffffffff0483118215151615611d8657611d856119a8565b5b828202905092915050565b7f70616972696e672d6f70636f64652d6661696c65640000000000000000000000600082015250565b6000611dc7601583611a76565b9150611dd282611d91565b602082019050919050565b60006020820190508181036000830152611df681611dba565b905091905056fea26469706673582212204d34dbab672828bbb0783a9430de4cbd74857b06fe880542f4e07dd900ba57bd64736f6c634300080c0033",
  "linkReferences": {},
  "deployedLinkReferences": {}
}