{
  "_format": "hh-sol-artifact-1",
  "contractName": "userContract",
  "sourceName": "contracts/userContract.sol",
  "abi": [
    {
      "inputs": [],
      "name": "getOwner",
      "outputs": [
        {
          "internalType": "address",
          "name": "",
          "type": "address"
        }
      ],
      "stateMutability": "view",
      "type": "function"
    },
    {
      "inputs": [],
      "name": "owner",
      "outputs": [
        {
          "internalType": "address",
          "name": "",
          "type": "address"
        }
      ],
      "stateMutability": "view",
      "type": "function"
    },
    {
      "inputs": [
        {
          "internalType": "address",
          "name": "newOwner",
          "type": "address"
        }
      ],
      "name": "setOwner",
      "outputs": [],
      "stateMutability": "nonpayable",
      "type": "function"
    }
  ],
  "bytecode": "0x608060405234801561001057600080fd5b5061021e806100206000396000f3fe608060405234801561001057600080fd5b50600436106100415760003560e01c806313af403514610046578063893d20e8146100625780638da5cb5b14610080575b600080fd5b610060600480360381019061005b9190610191565b61009e565b005b61006a6100e1565b60405161007791906101cd565b60405180910390f35b61008861010a565b60405161009591906101cd565b60405180910390f35b806000806101000a81548173ffffffffffffffffffffffffffffffffffffffff021916908373ffffffffffffffffffffffffffffffffffffffff16021790555050565b60008060009054906101000a900473ffffffffffffffffffffffffffffffffffffffff16905090565b60008054906101000a900473ffffffffffffffffffffffffffffffffffffffff1681565b600080fd5b600073ffffffffffffffffffffffffffffffffffffffff82169050919050565b600061015e82610133565b9050919050565b61016e81610153565b811461017957600080fd5b50565b60008135905061018b81610165565b92915050565b6000602082840312156101a7576101a661012e565b5b60006101b58482850161017c565b91505092915050565b6101c781610153565b82525050565b60006020820190506101e260008301846101be565b9291505056fea2646970667358221220d60558c7deb6f5a55ef45f6add944df05f6d7390175bd0c8f34f0bb3c940b20064736f6c634300080c0033",
  "linkReferences": {},
  "deployedLinkReferences": {}
}