{
  "contracts/Verifier.sol": {
    "Verifier": {
      "abi": [
        {
          "inputs": [
            {
              "internalType": "uint256[2]",
              "name": "a",
              "type": "uint256[2]"
            },
            {
              "internalType": "uint256[2][2]",
              "name": "b",
              "type": "uint256[2][2]"
            },
            {
              "internalType": "uint256[2]",
              "name": "c",
              "type": "uint256[2]"
            },
            {
              "internalType": "uint256[9]",
              "name": "input",
              "type": "uint256[9]"
            }
          ],
          "name": "verifyProof",
          "outputs": [
            {
              "internalType": "bool",
              "name": "r",
              "type": "bool"
            }
          ],
          "stateMutability": "view",
          "type": "function"
        }
      ],
      "evm": {
        "bytecode": {
          "linkReferences": {},
          "object": "608060405234801561001057600080fd5b50611e33806100206000396000f3fe608060405234801561001057600080fd5b506004361061002b5760003560e01c8063c542c93b14610030575b600080fd5b61004a600480360381019061004591906118da565b610060565b604051610057919061195e565b60405180910390f35b600061006a6114aa565b60405180604001604052808760006002811061008957610088611979565b5b60200201518152602001876001600281106100a7576100a6611979565b5b6020020151815250816000018190525060405180604001604052806040518060400160405280886000600281106100e1576100e0611979565b5b60200201516000600281106100f9576100f8611979565b5b602002015181526020018860006002811061011757610116611979565b5b602002015160016002811061012f5761012e611979565b5b6020020151815250815260200160405180604001604052808860016002811061015b5761015a611979565b5b602002015160006002811061017357610172611979565b5b602002015181526020018860016002811061019157610190611979565b5b60200201516001600281106101a9576101a8611979565b5b602002015181525081525081602001819052506040518060400160405280856000600281106101db576101da611979565b5b60200201518152602001856001600281106101f9576101f8611979565b5b602002015181525081604001819052506000600967ffffffffffffffff81111561022657610225611611565b5b6040519080825280602002602001820160405280156102545781602001602082028036833780820191505090505b50905060005b60098110156102ad5784816009811061027657610275611979565b5b602002015182828151811061028e5761028d611979565b5b60200260200101818152505080806102a5906119d7565b91505061025a565b5060006102ba82846102da565b14156102cb576001925050506102d2565b6000925050505b949350505050565b6000807f30644e72e131a029b85045b68181585d2833e84879b9709143e1f593f00000019050600061030a6104cd565b9050806080015151600186516103209190611a20565b14610360576040517f08c379a000000000000000000000000000000000000000000000000000000000815260040161035790611ad3565b60405180910390fd5b60006040518060400160405280600081526020016000815250905060005b865181101561044f578387828151811061039b5761039a611979565b5b6020026020010151106103e3576040517f08c379a00000000000000000000000000000000000000000000000000000000081526004016103da90611b3f565b60405180910390fd5b61043a8261043585608001516001856103fc9190611a20565b8151811061040d5761040c611979565b5b60200260200101518a858151811061042857610427611979565b5b6020026020010151610c91565b610d6e565b91508080610447906119d7565b91505061037e565b5061047981836080015160008151811061046c5761046b611979565b5b6020026020010151610d6e565b90506104af61048b8660000151610e71565b8660200151846000015185602001518587604001518b604001518960600151610f16565b6104bf57600193505050506104c7565b600093505050505b92915050565b6104d56114dd565b60405180604001604052807f18a2ad5d2a59e9ea0c4ede1e9d38ecca0ab4cd9d8e1c208c4836fc523ea2c40281526020017f153fd4fb3b15ba53d5304e0a49e7c4134c25949e258fe6a018f98999dda72acb8152508160000181905250604051806040016040528060405180604001604052807f20bbf10e59c71c627278bdbb7967c91f89a9f3cb6b0f133bea3e4dd793d0aab881526020017f2516cb603b9aacf4fcc788bf8f95e21e5bea6f47cf457b427c6afba2f871ed97815250815260200160405180604001604052807f2363ac376e3616c04805e990fedda0124490849a370e1a9d48c179c97dba8ec281526020017f0fa0fa49b037c377e903ef8421d3c963efd53d8240a0c57937f91d556eb0a1db8152508152508160200181905250604051806040016040528060405180604001604052807f198e9393920d483a7260bfb731fb5d25f1aa493335a9e71297e485b7aef312c281526020017f1800deef121f1e76426a00665e5c4479674322d4f75edadd46debd5cd992f6ed815250815260200160405180604001604052807f090689d0585ff075ec9e99ad690c3395bc4b313370b38ef355acdadcd122975b81526020017f12c85ea5db8c6deb4aab71808dcb408fe3d1e7690c43d37b4ce6cc0166fa7daa8152508152508160400181905250604051806040016040528060405180604001604052807f24e771286ff2b178dd0e18c9becc2d62ad90654c28a34446e0df78b9b10dc90881526020017f1389e055f08db69912a9712240cb06c124a68de015bc18824c1735af75ededa1815250815260200160405180604001604052807f2c381c391ce835a78147c2b1593ee51570cd023056675e20744121455278606181526020017f2cfadacadf90dc64b737f686822596e7bdbfaa15b819b2f568ff174321f0b8a38152508152508160600181905250600a67ffffffffffffffff81111561079c5761079b611611565b5b6040519080825280602002602001820160405280156107d557816020015b6107c2611524565b8152602001906001900390816107ba5790505b50816080018190525060405180604001604052807f1be1dc2c44d0d14ad48b8052db8add77bc8cbcc8cdd2d2737241920cbebdff5f81526020017f273889d6503281d96a16016a7fa5471b98a23f3a27bee6f1b1615c7f727b7e13815250816080015160008151811061084b5761084a611979565b5b602002602001018190525060405180604001604052807f2417812f4b2f56bb343c8008195ab818e874daf616584894cbfcafcd0bc49e4c81526020017f1b9809988c14e58368f16828613cc21a747f8ca4fb46232b50133fdaa731169d81525081608001516001815181106108c3576108c2611979565b5b602002602001018190525060405180604001604052807f2a6d4cd29105749034caa874ba5411e79afefd885f42b3d0e86b0487aa9a739e81526020017f242aa271aa83727768b523e9ea71f3cd54f2a8744a42032d705227694bead396815250816080015160028151811061093b5761093a611979565b5b602002602001018190525060405180604001604052807f133c2555a9626e9ccc37385b5a0d7e40f7301b17b2ed253f1d8bc6a1a50f404681526020017f230f030f37e3bf950aa41531e55c15660045808d9aae2545b393cde9ace069d481525081608001516003815181106109b3576109b2611979565b5b602002602001018190525060405180604001604052807f18f675a87fd610195fb02de5633822a28df5c00c308b915d3818541ca2b7dacc81526020017f22b223e14d2ef396f1477c22a638f0d499d7423f4e08a54b62aea596d785b2e78152508160800151600481518110610a2b57610a2a611979565b5b602002602001018190525060405180604001604052807f13fef3be3aee0bbf43777198474f33325ef5a26df8ae81131cb547c4048e872281526020017f2f8d0e602ea9c9feffa17b88edd78cde937d9867ed3e4660622a888531795fb88152508160800151600581518110610aa357610aa2611979565b5b602002602001018190525060405180604001604052807f0e1fe76bb3cc4d434b94ef289d05abf7431c4e537783d8e4ed015839d3eb693581526020017f181c3fc3294ecabdd9cb50b53ded569f25c710dca27f4da6129b51b69a1197958152508160800151600681518110610b1b57610b1a611979565b5b602002602001018190525060405180604001604052807f0dac03788394178ad3aada6de240f5e69a038c8f1357ac9e4bc255c17e20b26a81526020017f15cc3234ed21623297ebc910507c83f3de4c5901342d380fc706d8ed1bd8183b8152508160800151600781518110610b9357610b92611979565b5b602002602001018190525060405180604001604052807f21476a218053d95b4d05c6ad26170801dce97eca1ac32acadfc94867e74a782881526020017f0c8020360c6c20f9b22c723b68718d499687ccdefeada558a0cb49ac49e514158152508160800151600881518110610c0b57610c0a611979565b5b602002602001018190525060405180604001604052807f17eec49ee847a17198d8132f180e88c5c55239a51c23369b7545dad0369060c381526020017f05a477e22d9f7a63097e7a12555bc2f37e054e3c036d77442cb2e6c7ff65a3b08152508160800151600981518110610c8357610c82611979565b5b602002602001018190525090565b610c99611524565b610ca161153e565b836000015181600060038110610cba57610cb9611979565b5b602002018181525050836020015181600160038110610cdc57610cdb611979565b5b6020020181815250508281600260038110610cfa57610cf9611979565b5b602002018181525050600060608360808460076107d05a03fa90508060008114610d2357610d25565bfe5b5080610d66576040517f08c379a0000000000000000000000000000000000000000000000000000000008152600401610d5d90611bab565b60405180910390fd5b505092915050565b610d76611524565b610d7e611560565b836000015181600060048110610d9757610d96611979565b5b602002018181525050836020015181600160048110610db957610db8611979565b5b602002018181525050826000015181600260048110610ddb57610dda611979565b5b602002018181525050826020015181600360048110610dfd57610dfc611979565b5b602002018181525050600060608360c08460066107d05a03fa90508060008114610e2657610e28565bfe5b5080610e69576040517f08c379a0000000000000000000000000000000000000000000000000000000008152600401610e6090611c17565b60405180910390fd5b505092915050565b610e79611524565b60007f30644e72e131a029b85045b68181585d97816a916871ca8d3c208c16d87cfd47905060008360000151148015610eb6575060008360200151145b15610eda576040518060400160405280600081526020016000815250915050610f11565b604051806040016040528084600001518152602001828560200151610eff9190611c66565b83610f0a9190611c97565b8152509150505b919050565b600080600467ffffffffffffffff811115610f3457610f33611611565b5b604051908082528060200260200182016040528015610f6d57816020015b610f5a611524565b815260200190600190039081610f525790505b5090506000600467ffffffffffffffff811115610f8d57610f8c611611565b5b604051908082528060200260200182016040528015610fc657816020015b610fb3611582565b815260200190600190039081610fab5790505b5090508a82600081518110610fde57610fdd611979565b5b60200260200101819052508882600181518110610ffe57610ffd611979565b5b6020026020010181905250868260028151811061101e5761101d611979565b5b6020026020010181905250848260038151811061103e5761103d611979565b5b6020026020010181905250898160008151811061105e5761105d611979565b5b6020026020010181905250878160018151811061107e5761107d611979565b5b6020026020010181905250858160028151811061109e5761109d611979565b5b602002602001018190525083816003815181106110be576110bd611979565b5b60200260200101819052506110d382826110e3565b9250505098975050505050505050565b60008151835114611129576040517f08c379a000000000000000000000000000000000000000000000000000000000815260040161112090611d17565b60405180910390fd5b600083519050600060068261113e9190611d37565b905060008167ffffffffffffffff81111561115c5761115b611611565b5b60405190808252806020026020018201604052801561118a5781602001602082028036833780820191505090505b50905060005b8381101561140f578681815181106111ab576111aa611979565b5b6020026020010151600001518260006006846111c79190611d37565b6111d19190611a20565b815181106111e2576111e1611979565b5b60200260200101818152505086818151811061120157611200611979565b5b60200260200101516020015182600160068461121d9190611d37565b6112279190611a20565b8151811061123857611237611979565b5b60200260200101818152505085818151811061125757611256611979565b5b60200260200101516000015160006002811061127657611275611979565b5b602002015182600260068461128b9190611d37565b6112959190611a20565b815181106112a6576112a5611979565b5b6020026020010181815250508581815181106112c5576112c4611979565b5b6020026020010151600001516001600281106112e4576112e3611979565b5b60200201518260036006846112f99190611d37565b6113039190611a20565b8151811061131457611313611979565b5b60200260200101818152505085818151811061133357611332611979565b5b60200260200101516020015160006002811061135257611351611979565b5b60200201518260046006846113679190611d37565b6113719190611a20565b8151811061138257611381611979565b5b6020026020010181815250508581815181106113a1576113a0611979565b5b6020026020010151602001516001600281106113c0576113bf611979565b5b60200201518260056006846113d59190611d37565b6113df9190611a20565b815181106113f0576113ef611979565b5b6020026020010181815250508080611407906119d7565b915050611190565b506114186115a8565b6000602082602086026020860160086107d05a03fa9050806000811461143d5761143f565bfe5b5080611480576040517f08c379a000000000000000000000000000000000000000000000000000000000815260040161147790611ddd565b60405180910390fd5b60008260006001811061149657611495611979565b5b602002015114159550505050505092915050565b60405180606001604052806114bd611524565b81526020016114ca611582565b81526020016114d7611524565b81525090565b6040518060a001604052806114f0611524565b81526020016114fd611582565b815260200161150a611582565b8152602001611517611582565b8152602001606081525090565b604051806040016040528060008152602001600081525090565b6040518060600160405280600390602082028036833780820191505090505090565b6040518060800160405280600490602082028036833780820191505090505090565b60405180604001604052806115956115ca565b81526020016115a26115ca565b81525090565b6040518060200160405280600190602082028036833780820191505090505090565b6040518060400160405280600290602082028036833780820191505090505090565b6000604051905090565b600080fd5b600080fd5b6000601f19601f8301169050919050565b7f4e487b7100000000000000000000000000000000000000000000000000000000600052604160045260246000fd5b61164982611600565b810181811067ffffffffffffffff8211171561166857611667611611565b5b80604052505050565b600061167b6115ec565b90506116878282611640565b919050565b600067ffffffffffffffff8211156116a7576116a6611611565b5b602082029050919050565b600080fd5b6000819050919050565b6116ca816116b7565b81146116d557600080fd5b50565b6000813590506116e7816116c1565b92915050565b60006117006116fb8461168c565b611671565b9050806020840283018581111561171a576117196116b2565b5b835b81811015611743578061172f88826116d8565b84526020840193505060208101905061171c565b5050509392505050565b600082601f830112611762576117616115fb565b5b600261176f8482856116ed565b91505092915050565b600067ffffffffffffffff82111561179357611792611611565b5b602082029050919050565b60006117b16117ac84611778565b611671565b905080604084028301858111156117cb576117ca6116b2565b5b835b818110156117f457806117e0888261174d565b8452602084019350506040810190506117cd565b5050509392505050565b600082601f830112611813576118126115fb565b5b600261182084828561179e565b91505092915050565b600067ffffffffffffffff82111561184457611843611611565b5b602082029050919050565b600061186261185d84611829565b611671565b9050806020840283018581111561187c5761187b6116b2565b5b835b818110156118a5578061189188826116d8565b84526020840193505060208101905061187e565b5050509392505050565b600082601f8301126118c4576118c36115fb565b5b60096118d184828561184f565b91505092915050565b60008060008061022085870312156118f5576118f46115f6565b5b60006119038782880161174d565b9450506040611914878288016117fe565b93505060c06119258782880161174d565b925050610100611937878288016118af565b91505092959194509250565b60008115159050919050565b61195881611943565b82525050565b6000602082019050611973600083018461194f565b92915050565b7f4e487b7100000000000000000000000000000000000000000000000000000000600052603260045260246000fd5b7f4e487b7100000000000000000000000000000000000000000000000000000000600052601160045260246000fd5b60006119e2826116b7565b91507fffffffffffffffffffffffffffffffffffffffffffffffffffffffffffffffff821415611a1557611a146119a8565b5b600182019050919050565b6000611a2b826116b7565b9150611a36836116b7565b9250827fffffffffffffffffffffffffffffffffffffffffffffffffffffffffffffffff03821115611a6b57611a6a6119a8565b5b828201905092915050565b600082825260208201905092915050565b7f76657269666965722d6261642d696e7075740000000000000000000000000000600082015250565b6000611abd601283611a76565b9150611ac882611a87565b602082019050919050565b60006020820190508181036000830152611aec81611ab0565b9050919050565b7f76657269666965722d6774652d736e61726b2d7363616c61722d6669656c6400600082015250565b6000611b29601f83611a76565b9150611b3482611af3565b602082019050919050565b60006020820190508181036000830152611b5881611b1c565b9050919050565b7f70616972696e672d6d756c2d6661696c65640000000000000000000000000000600082015250565b6000611b95601283611a76565b9150611ba082611b5f565b602082019050919050565b60006020820190508181036000830152611bc481611b88565b9050919050565b7f70616972696e672d6164642d6661696c65640000000000000000000000000000600082015250565b6000611c01601283611a76565b9150611c0c82611bcb565b602082019050919050565b60006020820190508181036000830152611c3081611bf4565b9050919050565b7f4e487b7100000000000000000000000000000000000000000000000000000000600052601260045260246000fd5b6000611c71826116b7565b9150611c7c836116b7565b925082611c8c57611c8b611c37565b5b828206905092915050565b6000611ca2826116b7565b9150611cad836116b7565b925082821015611cc057611cbf6119a8565b5b828203905092915050565b7f70616972696e672d6c656e677468732d6661696c656400000000000000000000600082015250565b6000611d01601683611a76565b9150611d0c82611ccb565b602082019050919050565b60006020820190508181036000830152611d3081611cf4565b9050919050565b6000611d42826116b7565b9150611d4d836116b7565b9250817fffffffffffffffffffffffffffffffffffffffffffffffffffffffffffffffff0483118215151615611d8657611d856119a8565b5b828202905092915050565b7f70616972696e672d6f70636f64652d6661696c65640000000000000000000000600082015250565b6000611dc7601583611a76565b9150611dd282611d91565b602082019050919050565b60006020820190508181036000830152611df681611dba565b905091905056fea26469706673582212204d34dbab672828bbb0783a9430de4cbd74857b06fe880542f4e07dd900ba57bd64736f6c634300080c0033",
          "opcodes": "PUSH1 0x80 PUSH1 0x40 MSTORE CALLVALUE DUP1 ISZERO PUSH2 0x10 JUMPI PUSH1 0x0 DUP1 REVERT JUMPDEST POP PUSH2 0x1E33 DUP1 PUSH2 0x20 PUSH1 0x0 CODECOPY PUSH1 0x0 RETURN INVALID PUSH1 0x80 PUSH1 0x40 MSTORE CALLVALUE DUP1 ISZERO PUSH2 0x10 JUMPI PUSH1 0x0 DUP1 REVERT JUMPDEST POP PUSH1 0x4 CALLDATASIZE LT PUSH2 0x2B JUMPI PUSH1 0x0 CALLDATALOAD PUSH1 0xE0 SHR DUP1 PUSH4 0xC542C93B EQ PUSH2 0x30 JUMPI JUMPDEST PUSH1 0x0 DUP1 REVERT JUMPDEST PUSH2 0x4A PUSH1 0x4 DUP1 CALLDATASIZE SUB DUP2 ADD SWAP1 PUSH2 0x45 SWAP2 SWAP1 PUSH2 0x18DA JUMP JUMPDEST PUSH2 0x60 JUMP JUMPDEST PUSH1 0x40 MLOAD PUSH2 0x57 SWAP2 SWAP1 PUSH2 0x195E JUMP JUMPDEST PUSH1 0x40 MLOAD DUP1 SWAP2 SUB SWAP1 RETURN JUMPDEST PUSH1 0x0 PUSH2 0x6A PUSH2 0x14AA JUMP JUMPDEST PUSH1 0x40 MLOAD DUP1 PUSH1 0x40 ADD PUSH1 0x40 MSTORE DUP1 DUP8 PUSH1 0x0 PUSH1 0x2 DUP2 LT PUSH2 0x89 JUMPI PUSH2 0x88 PUSH2 0x1979 JUMP JUMPDEST JUMPDEST PUSH1 0x20 MUL ADD MLOAD DUP2 MSTORE PUSH1 0x20 ADD DUP8 PUSH1 0x1 PUSH1 0x2 DUP2 LT PUSH2 0xA7 JUMPI PUSH2 0xA6 PUSH2 0x1979 JUMP JUMPDEST JUMPDEST PUSH1 0x20 MUL ADD MLOAD DUP2 MSTORE POP DUP2 PUSH1 0x0 ADD DUP2 SWAP1 MSTORE POP PUSH1 0x40 MLOAD DUP1 PUSH1 0x40 ADD PUSH1 0x40 MSTORE DUP1 PUSH1 0x40 MLOAD DUP1 PUSH1 0x40 ADD PUSH1 0x40 MSTORE DUP1 DUP9 PUSH1 0x0 PUSH1 0x2 DUP2 LT PUSH2 0xE1 JUMPI PUSH2 0xE0 PUSH2 0x1979 JUMP JUMPDEST JUMPDEST PUSH1 0x20 MUL ADD MLOAD PUSH1 0x0 PUSH1 0x2 DUP2 LT PUSH2 0xF9 JUMPI PUSH2 0xF8 PUSH2 0x1979 JUMP JUMPDEST JUMPDEST PUSH1 0x20 MUL ADD MLOAD DUP2 MSTORE PUSH1 0x20 ADD DUP9 PUSH1 0x0 PUSH1 0x2 DUP2 LT PUSH2 0x117 JUMPI PUSH2 0x116 PUSH2 0x1979 JUMP JUMPDEST JUMPDEST PUSH1 0x20 MUL ADD MLOAD PUSH1 0x1 PUSH1 0x2 DUP2 LT PUSH2 0x12F JUMPI PUSH2 0x12E PUSH2 0x1979 JUMP JUMPDEST JUMPDEST PUSH1 0x20 MUL ADD MLOAD DUP2 MSTORE POP DUP2 MSTORE PUSH1 0x20 ADD PUSH1 0x40 MLOAD DUP1 PUSH1 0x40 ADD PUSH1 0x40 MSTORE DUP1 DUP9 PUSH1 0x1 PUSH1 0x2 DUP2 LT PUSH2 0x15B JUMPI PUSH2 0x15A PUSH2 0x1979 JUMP JUMPDEST JUMPDEST PUSH1 0x20 MUL ADD MLOAD PUSH1 0x0 PUSH1 0x2 DUP2 LT PUSH2 0x173 JUMPI PUSH2 0x172 PUSH2 0x1979 JUMP JUMPDEST JUMPDEST PUSH1 0x20 MUL ADD MLOAD DUP2 MSTORE PUSH1 0x20 ADD DUP9 PUSH1 0x1 PUSH1 0x2 DUP2 LT PUSH2 0x191 JUMPI PUSH2 0x190 PUSH2 0x1979 JUMP JUMPDEST JUMPDEST PUSH1 0x20 MUL ADD MLOAD PUSH1 0x1 PUSH1 0x2 DUP2 LT PUSH2 0x1A9 JUMPI PUSH2 0x1A8 PUSH2 0x1979 JUMP JUMPDEST JUMPDEST PUSH1 0x20 MUL ADD MLOAD DUP2 MSTORE POP DUP2 MSTORE POP DUP2 PUSH1 0x20 ADD DUP2 SWAP1 MSTORE POP PUSH1 0x40 MLOAD DUP1 PUSH1 0x40 ADD PUSH1 0x40 MSTORE DUP1 DUP6 PUSH1 0x0 PUSH1 0x2 DUP2 LT PUSH2 0x1DB JUMPI PUSH2 0x1DA PUSH2 0x1979 JUMP JUMPDEST JUMPDEST PUSH1 0x20 MUL ADD MLOAD DUP2 MSTORE PUSH1 0x20 ADD DUP6 PUSH1 0x1 PUSH1 0x2 DUP2 LT PUSH2 0x1F9 JUMPI PUSH2 0x1F8 PUSH2 0x1979 JUMP JUMPDEST JUMPDEST PUSH1 0x20 MUL ADD MLOAD DUP2 MSTORE POP DUP2 PUSH1 0x40 ADD DUP2 SWAP1 MSTORE POP PUSH1 0x0 PUSH1 0x9 PUSH8 0xFFFFFFFFFFFFFFFF DUP2 GT ISZERO PUSH2 0x226 JUMPI PUSH2 0x225 PUSH2 0x1611 JUMP JUMPDEST JUMPDEST PUSH1 0x40 MLOAD SWAP1 DUP1 DUP3 MSTORE DUP1 PUSH1 0x20 MUL PUSH1 0x20 ADD DUP3 ADD PUSH1 0x40 MSTORE DUP1 ISZERO PUSH2 0x254 JUMPI DUP2 PUSH1 0x20 ADD PUSH1 0x20 DUP3 MUL DUP1 CALLDATASIZE DUP4 CALLDATACOPY DUP1 DUP3 ADD SWAP2 POP POP SWAP1 POP JUMPDEST POP SWAP1 POP PUSH1 0x0 JUMPDEST PUSH1 0x9 DUP2 LT ISZERO PUSH2 0x2AD JUMPI DUP5 DUP2 PUSH1 0x9 DUP2 LT PUSH2 0x276 JUMPI PUSH2 0x275 PUSH2 0x1979 JUMP JUMPDEST JUMPDEST PUSH1 0x20 MUL ADD MLOAD DUP3 DUP3 DUP2 MLOAD DUP2 LT PUSH2 0x28E JUMPI PUSH2 0x28D PUSH2 0x1979 JUMP JUMPDEST JUMPDEST PUSH1 0x20 MUL PUSH1 0x20 ADD ADD DUP2 DUP2 MSTORE POP POP DUP1 DUP1 PUSH2 0x2A5 SWAP1 PUSH2 0x19D7 JUMP JUMPDEST SWAP2 POP POP PUSH2 0x25A JUMP JUMPDEST POP PUSH1 0x0 PUSH2 0x2BA DUP3 DUP5 PUSH2 0x2DA JUMP JUMPDEST EQ ISZERO PUSH2 0x2CB JUMPI PUSH1 0x1 SWAP3 POP POP POP PUSH2 0x2D2 JUMP JUMPDEST PUSH1 0x0 SWAP3 POP POP POP JUMPDEST SWAP5 SWAP4 POP POP POP POP JUMP JUMPDEST PUSH1 0x0 DUP1 PUSH32 0x30644E72E131A029B85045B68181585D2833E84879B9709143E1F593F0000001 SWAP1 POP PUSH1 0x0 PUSH2 0x30A PUSH2 0x4CD JUMP JUMPDEST SWAP1 POP DUP1 PUSH1 0x80 ADD MLOAD MLOAD PUSH1 0x1 DUP7 MLOAD PUSH2 0x320 SWAP2 SWAP1 PUSH2 0x1A20 JUMP JUMPDEST EQ PUSH2 0x360 JUMPI PUSH1 0x40 MLOAD PUSH32 0x8C379A000000000000000000000000000000000000000000000000000000000 DUP2 MSTORE PUSH1 0x4 ADD PUSH2 0x357 SWAP1 PUSH2 0x1AD3 JUMP JUMPDEST PUSH1 0x40 MLOAD DUP1 SWAP2 SUB SWAP1 REVERT JUMPDEST PUSH1 0x0 PUSH1 0x40 MLOAD DUP1 PUSH1 0x40 ADD PUSH1 0x40 MSTORE DUP1 PUSH1 0x0 DUP2 MSTORE PUSH1 0x20 ADD PUSH1 0x0 DUP2 MSTORE POP SWAP1 POP PUSH1 0x0 JUMPDEST DUP7 MLOAD DUP2 LT ISZERO PUSH2 0x44F JUMPI DUP4 DUP8 DUP3 DUP2 MLOAD DUP2 LT PUSH2 0x39B JUMPI PUSH2 0x39A PUSH2 0x1979 JUMP JUMPDEST JUMPDEST PUSH1 0x20 MUL PUSH1 0x20 ADD ADD MLOAD LT PUSH2 0x3E3 JUMPI PUSH1 0x40 MLOAD PUSH32 0x8C379A000000000000000000000000000000000000000000000000000000000 DUP2 MSTORE PUSH1 0x4 ADD PUSH2 0x3DA SWAP1 PUSH2 0x1B3F JUMP JUMPDEST PUSH1 0x40 MLOAD DUP1 SWAP2 SUB SWAP1 REVERT JUMPDEST PUSH2 0x43A DUP3 PUSH2 0x435 DUP6 PUSH1 0x80 ADD MLOAD PUSH1 0x1 DUP6 PUSH2 0x3FC SWAP2 SWAP1 PUSH2 0x1A20 JUMP JUMPDEST DUP2 MLOAD DUP2 LT PUSH2 0x40D JUMPI PUSH2 0x40C PUSH2 0x1979 JUMP JUMPDEST JUMPDEST PUSH1 0x20 MUL PUSH1 0x20 ADD ADD MLOAD DUP11 DUP6 DUP2 MLOAD DUP2 LT PUSH2 0x428 JUMPI PUSH2 0x427 PUSH2 0x1979 JUMP JUMPDEST JUMPDEST PUSH1 0x20 MUL PUSH1 0x20 ADD ADD MLOAD PUSH2 0xC91 JUMP JUMPDEST PUSH2 0xD6E JUMP JUMPDEST SWAP2 POP DUP1 DUP1 PUSH2 0x447 SWAP1 PUSH2 0x19D7 JUMP JUMPDEST SWAP2 POP POP PUSH2 0x37E JUMP JUMPDEST POP PUSH2 0x479 DUP2 DUP4 PUSH1 0x80 ADD MLOAD PUSH1 0x0 DUP2 MLOAD DUP2 LT PUSH2 0x46C JUMPI PUSH2 0x46B PUSH2 0x1979 JUMP JUMPDEST JUMPDEST PUSH1 0x20 MUL PUSH1 0x20 ADD ADD MLOAD PUSH2 0xD6E JUMP JUMPDEST SWAP1 POP PUSH2 0x4AF PUSH2 0x48B DUP7 PUSH1 0x0 ADD MLOAD PUSH2 0xE71 JUMP JUMPDEST DUP7 PUSH1 0x20 ADD MLOAD DUP5 PUSH1 0x0 ADD MLOAD DUP6 PUSH1 0x20 ADD MLOAD DUP6 DUP8 PUSH1 0x40 ADD MLOAD DUP12 PUSH1 0x40 ADD MLOAD DUP10 PUSH1 0x60 ADD MLOAD PUSH2 0xF16 JUMP JUMPDEST PUSH2 0x4BF JUMPI PUSH1 0x1 SWAP4 POP POP POP POP PUSH2 0x4C7 JUMP JUMPDEST PUSH1 0x0 SWAP4 POP POP POP POP JUMPDEST SWAP3 SWAP2 POP POP JUMP JUMPDEST PUSH2 0x4D5 PUSH2 0x14DD JUMP JUMPDEST PUSH1 0x40 MLOAD DUP1 PUSH1 0x40 ADD PUSH1 0x40 MSTORE DUP1 PUSH32 0x18A2AD5D2A59E9EA0C4EDE1E9D38ECCA0AB4CD9D8E1C208C4836FC523EA2C402 DUP2 MSTORE PUSH1 0x20 ADD PUSH32 0x153FD4FB3B15BA53D5304E0A49E7C4134C25949E258FE6A018F98999DDA72ACB DUP2 MSTORE POP DUP2 PUSH1 0x0 ADD DUP2 SWAP1 MSTORE POP PUSH1 0x40 MLOAD DUP1 PUSH1 0x40 ADD PUSH1 0x40 MSTORE DUP1 PUSH1 0x40 MLOAD DUP1 PUSH1 0x40 ADD PUSH1 0x40 MSTORE DUP1 PUSH32 0x20BBF10E59C71C627278BDBB7967C91F89A9F3CB6B0F133BEA3E4DD793D0AAB8 DUP2 MSTORE PUSH1 0x20 ADD PUSH32 0x2516CB603B9AACF4FCC788BF8F95E21E5BEA6F47CF457B427C6AFBA2F871ED97 DUP2 MSTORE POP DUP2 MSTORE PUSH1 0x20 ADD PUSH1 0x40 MLOAD DUP1 PUSH1 0x40 ADD PUSH1 0x40 MSTORE DUP1 PUSH32 0x2363AC376E3616C04805E990FEDDA0124490849A370E1A9D48C179C97DBA8EC2 DUP2 MSTORE PUSH1 0x20 ADD PUSH32 0xFA0FA49B037C377E903EF8421D3C963EFD53D8240A0C57937F91D556EB0A1DB DUP2 MSTORE POP DUP2 MSTORE POP DUP2 PUSH1 0x20 ADD DUP2 SWAP1 MSTORE POP PUSH1 0x40 MLOAD DUP1 PUSH1 0x40 ADD PUSH1 0x40 MSTORE DUP1 PUSH1 0x40 MLOAD DUP1 PUSH1 0x40 ADD PUSH1 0x40 MSTORE DUP1 PUSH32 0x198E9393920D483A7260BFB731FB5D25F1AA493335A9E71297E485B7AEF312C2 DUP2 MSTORE PUSH1 0x20 ADD PUSH32 0x1800DEEF121F1E76426A00665E5C4479674322D4F75EDADD46DEBD5CD992F6ED DUP2 MSTORE POP DUP2 MSTORE PUSH1 0x20 ADD PUSH1 0x40 MLOAD DUP1 PUSH1 0x40 ADD PUSH1 0x40 MSTORE DUP1 PUSH32 0x90689D0585FF075EC9E99AD690C3395BC4B313370B38EF355ACDADCD122975B DUP2 MSTORE PUSH1 0x20 ADD PUSH32 0x12C85EA5DB8C6DEB4AAB71808DCB408FE3D1E7690C43D37B4CE6CC0166FA7DAA DUP2 MSTORE POP DUP2 MSTORE POP DUP2 PUSH1 0x40 ADD DUP2 SWAP1 MSTORE POP PUSH1 0x40 MLOAD DUP1 PUSH1 0x40 ADD PUSH1 0x40 MSTORE DUP1 PUSH1 0x40 MLOAD DUP1 PUSH1 0x40 ADD PUSH1 0x40 MSTORE DUP1 PUSH32 0x24E771286FF2B178DD0E18C9BECC2D62AD90654C28A34446E0DF78B9B10DC908 DUP2 MSTORE PUSH1 0x20 ADD PUSH32 0x1389E055F08DB69912A9712240CB06C124A68DE015BC18824C1735AF75EDEDA1 DUP2 MSTORE POP DUP2 MSTORE PUSH1 0x20 ADD PUSH1 0x40 MLOAD DUP1 PUSH1 0x40 ADD PUSH1 0x40 MSTORE DUP1 PUSH32 0x2C381C391CE835A78147C2B1593EE51570CD023056675E207441214552786061 DUP2 MSTORE PUSH1 0x20 ADD PUSH32 0x2CFADACADF90DC64B737F686822596E7BDBFAA15B819B2F568FF174321F0B8A3 DUP2 MSTORE POP DUP2 MSTORE POP DUP2 PUSH1 0x60 ADD DUP2 SWAP1 MSTORE POP PUSH1 0xA PUSH8 0xFFFFFFFFFFFFFFFF DUP2 GT ISZERO PUSH2 0x79C JUMPI PUSH2 0x79B PUSH2 0x1611 JUMP JUMPDEST JUMPDEST PUSH1 0x40 MLOAD SWAP1 DUP1 DUP3 MSTORE DUP1 PUSH1 0x20 MUL PUSH1 0x20 ADD DUP3 ADD PUSH1 0x40 MSTORE DUP1 ISZERO PUSH2 0x7D5 JUMPI DUP2 PUSH1 0x20 ADD JUMPDEST PUSH2 0x7C2 PUSH2 0x1524 JUMP JUMPDEST DUP2 MSTORE PUSH1 0x20 ADD SWAP1 PUSH1 0x1 SWAP1 SUB SWAP1 DUP2 PUSH2 0x7BA JUMPI SWAP1 POP JUMPDEST POP DUP2 PUSH1 0x80 ADD DUP2 SWAP1 MSTORE POP PUSH1 0x40 MLOAD DUP1 PUSH1 0x40 ADD PUSH1 0x40 MSTORE DUP1 PUSH32 0x1BE1DC2C44D0D14AD48B8052DB8ADD77BC8CBCC8CDD2D2737241920CBEBDFF5F DUP2 MSTORE PUSH1 0x20 ADD PUSH32 0x273889D6503281D96A16016A7FA5471B98A23F3A27BEE6F1B1615C7F727B7E13 DUP2 MSTORE POP DUP2 PUSH1 0x80 ADD MLOAD PUSH1 0x0 DUP2 MLOAD DUP2 LT PUSH2 0x84B JUMPI PUSH2 0x84A PUSH2 0x1979 JUMP JUMPDEST JUMPDEST PUSH1 0x20 MUL PUSH1 0x20 ADD ADD DUP2 SWAP1 MSTORE POP PUSH1 0x40 MLOAD DUP1 PUSH1 0x40 ADD PUSH1 0x40 MSTORE DUP1 PUSH32 0x2417812F4B2F56BB343C8008195AB818E874DAF616584894CBFCAFCD0BC49E4C DUP2 MSTORE PUSH1 0x20 ADD PUSH32 0x1B9809988C14E58368F16828613CC21A747F8CA4FB46232B50133FDAA731169D DUP2 MSTORE POP DUP2 PUSH1 0x80 ADD MLOAD PUSH1 0x1 DUP2 MLOAD DUP2 LT PUSH2 0x8C3 JUMPI PUSH2 0x8C2 PUSH2 0x1979 JUMP JUMPDEST JUMPDEST PUSH1 0x20 MUL PUSH1 0x20 ADD ADD DUP2 SWAP1 MSTORE POP PUSH1 0x40 MLOAD DUP1 PUSH1 0x40 ADD PUSH1 0x40 MSTORE DUP1 PUSH32 0x2A6D4CD29105749034CAA874BA5411E79AFEFD885F42B3D0E86B0487AA9A739E DUP2 MSTORE PUSH1 0x20 ADD PUSH32 0x242AA271AA83727768B523E9EA71F3CD54F2A8744A42032D705227694BEAD396 DUP2 MSTORE POP DUP2 PUSH1 0x80 ADD MLOAD PUSH1 0x2 DUP2 MLOAD DUP2 LT PUSH2 0x93B JUMPI PUSH2 0x93A PUSH2 0x1979 JUMP JUMPDEST JUMPDEST PUSH1 0x20 MUL PUSH1 0x20 ADD ADD DUP2 SWAP1 MSTORE POP PUSH1 0x40 MLOAD DUP1 PUSH1 0x40 ADD PUSH1 0x40 MSTORE DUP1 PUSH32 0x133C2555A9626E9CCC37385B5A0D7E40F7301B17B2ED253F1D8BC6A1A50F4046 DUP2 MSTORE PUSH1 0x20 ADD PUSH32 0x230F030F37E3BF950AA41531E55C15660045808D9AAE2545B393CDE9ACE069D4 DUP2 MSTORE POP DUP2 PUSH1 0x80 ADD MLOAD PUSH1 0x3 DUP2 MLOAD DUP2 LT PUSH2 0x9B3 JUMPI PUSH2 0x9B2 PUSH2 0x1979 JUMP JUMPDEST JUMPDEST PUSH1 0x20 MUL PUSH1 0x20 ADD ADD DUP2 SWAP1 MSTORE POP PUSH1 0x40 MLOAD DUP1 PUSH1 0x40 ADD PUSH1 0x40 MSTORE DUP1 PUSH32 0x18F675A87FD610195FB02DE5633822A28DF5C00C308B915D3818541CA2B7DACC DUP2 MSTORE PUSH1 0x20 ADD PUSH32 0x22B223E14D2EF396F1477C22A638F0D499D7423F4E08A54B62AEA596D785B2E7 DUP2 MSTORE POP DUP2 PUSH1 0x80 ADD MLOAD PUSH1 0x4 DUP2 MLOAD DUP2 LT PUSH2 0xA2B JUMPI PUSH2 0xA2A PUSH2 0x1979 JUMP JUMPDEST JUMPDEST PUSH1 0x20 MUL PUSH1 0x20 ADD ADD DUP2 SWAP1 MSTORE POP PUSH1 0x40 MLOAD DUP1 PUSH1 0x40 ADD PUSH1 0x40 MSTORE DUP1 PUSH32 0x13FEF3BE3AEE0BBF43777198474F33325EF5A26DF8AE81131CB547C4048E8722 DUP2 MSTORE PUSH1 0x20 ADD PUSH32 0x2F8D0E602EA9C9FEFFA17B88EDD78CDE937D9867ED3E4660622A888531795FB8 DUP2 MSTORE POP DUP2 PUSH1 0x80 ADD MLOAD PUSH1 0x5 DUP2 MLOAD DUP2 LT PUSH2 0xAA3 JUMPI PUSH2 0xAA2 PUSH2 0x1979 JUMP JUMPDEST JUMPDEST PUSH1 0x20 MUL PUSH1 0x20 ADD ADD DUP2 SWAP1 MSTORE POP PUSH1 0x40 MLOAD DUP1 PUSH1 0x40 ADD PUSH1 0x40 MSTORE DUP1 PUSH32 0xE1FE76BB3CC4D434B94EF289D05ABF7431C4E537783D8E4ED015839D3EB6935 DUP2 MSTORE PUSH1 0x20 ADD PUSH32 0x181C3FC3294ECABDD9CB50B53DED569F25C710DCA27F4DA6129B51B69A119795 DUP2 MSTORE POP DUP2 PUSH1 0x80 ADD MLOAD PUSH1 0x6 DUP2 MLOAD DUP2 LT PUSH2 0xB1B JUMPI PUSH2 0xB1A PUSH2 0x1979 JUMP JUMPDEST JUMPDEST PUSH1 0x20 MUL PUSH1 0x20 ADD ADD DUP2 SWAP1 MSTORE POP PUSH1 0x40 MLOAD DUP1 PUSH1 0x40 ADD PUSH1 0x40 MSTORE DUP1 PUSH32 0xDAC03788394178AD3AADA6DE240F5E69A038C8F1357AC9E4BC255C17E20B26A DUP2 MSTORE PUSH1 0x20 ADD PUSH32 0x15CC3234ED21623297EBC910507C83F3DE4C5901342D380FC706D8ED1BD8183B DUP2 MSTORE POP DUP2 PUSH1 0x80 ADD MLOAD PUSH1 0x7 DUP2 MLOAD DUP2 LT PUSH2 0xB93 JUMPI PUSH2 0xB92 PUSH2 0x1979 JUMP JUMPDEST JUMPDEST PUSH1 0x20 MUL PUSH1 0x20 ADD ADD DUP2 SWAP1 MSTORE POP PUSH1 0x40 MLOAD DUP1 PUSH1 0x40 ADD PUSH1 0x40 MSTORE DUP1 PUSH32 0x21476A218053D95B4D05C6AD26170801DCE97ECA1AC32ACADFC94867E74A7828 DUP2 MSTORE PUSH1 0x20 ADD PUSH32 0xC8020360C6C20F9B22C723B68718D499687CCDEFEADA558A0CB49AC49E51415 DUP2 MSTORE POP DUP2 PUSH1 0x80 ADD MLOAD PUSH1 0x8 DUP2 MLOAD DUP2 LT PUSH2 0xC0B JUMPI PUSH2 0xC0A PUSH2 0x1979 JUMP JUMPDEST JUMPDEST PUSH1 0x20 MUL PUSH1 0x20 ADD ADD DUP2 SWAP1 MSTORE POP PUSH1 0x40 MLOAD DUP1 PUSH1 0x40 ADD PUSH1 0x40 MSTORE DUP1 PUSH32 0x17EEC49EE847A17198D8132F180E88C5C55239A51C23369B7545DAD0369060C3 DUP2 MSTORE PUSH1 0x20 ADD PUSH32 0x5A477E22D9F7A63097E7A12555BC2F37E054E3C036D77442CB2E6C7FF65A3B0 DUP2 MSTORE POP DUP2 PUSH1 0x80 ADD MLOAD PUSH1 0x9 DUP2 MLOAD DUP2 LT PUSH2 0xC83 JUMPI PUSH2 0xC82 PUSH2 0x1979 JUMP JUMPDEST JUMPDEST PUSH1 0x20 MUL PUSH1 0x20 ADD ADD DUP2 SWAP1 MSTORE POP SWAP1 JUMP JUMPDEST PUSH2 0xC99 PUSH2 0x1524 JUMP JUMPDEST PUSH2 0xCA1 PUSH2 0x153E JUMP JUMPDEST DUP4 PUSH1 0x0 ADD MLOAD DUP2 PUSH1 0x0 PUSH1 0x3 DUP2 LT PUSH2 0xCBA JUMPI PUSH2 0xCB9 PUSH2 0x1979 JUMP JUMPDEST JUMPDEST PUSH1 0x20 MUL ADD DUP2 DUP2 MSTORE POP POP DUP4 PUSH1 0x20 ADD MLOAD DUP2 PUSH1 0x1 PUSH1 0x3 DUP2 LT PUSH2 0xCDC JUMPI PUSH2 0xCDB PUSH2 0x1979 JUMP JUMPDEST JUMPDEST PUSH1 0x20 MUL ADD DUP2 DUP2 MSTORE POP POP DUP3 DUP2 PUSH1 0x2 PUSH1 0x3 DUP2 LT PUSH2 0xCFA JUMPI PUSH2 0xCF9 PUSH2 0x1979 JUMP JUMPDEST JUMPDEST PUSH1 0x20 MUL ADD DUP2 DUP2 MSTORE POP POP PUSH1 0x0 PUSH1 0x60 DUP4 PUSH1 0x80 DUP5 PUSH1 0x7 PUSH2 0x7D0 GAS SUB STATICCALL SWAP1 POP DUP1 PUSH1 0x0 DUP2 EQ PUSH2 0xD23 JUMPI PUSH2 0xD25 JUMP JUMPDEST INVALID JUMPDEST POP DUP1 PUSH2 0xD66 JUMPI PUSH1 0x40 MLOAD PUSH32 0x8C379A000000000000000000000000000000000000000000000000000000000 DUP2 MSTORE PUSH1 0x4 ADD PUSH2 0xD5D SWAP1 PUSH2 0x1BAB JUMP JUMPDEST PUSH1 0x40 MLOAD DUP1 SWAP2 SUB SWAP1 REVERT JUMPDEST POP POP SWAP3 SWAP2 POP POP JUMP JUMPDEST PUSH2 0xD76 PUSH2 0x1524 JUMP JUMPDEST PUSH2 0xD7E PUSH2 0x1560 JUMP JUMPDEST DUP4 PUSH1 0x0 ADD MLOAD DUP2 PUSH1 0x0 PUSH1 0x4 DUP2 LT PUSH2 0xD97 JUMPI PUSH2 0xD96 PUSH2 0x1979 JUMP JUMPDEST JUMPDEST PUSH1 0x20 MUL ADD DUP2 DUP2 MSTORE POP POP DUP4 PUSH1 0x20 ADD MLOAD DUP2 PUSH1 0x1 PUSH1 0x4 DUP2 LT PUSH2 0xDB9 JUMPI PUSH2 0xDB8 PUSH2 0x1979 JUMP JUMPDEST JUMPDEST PUSH1 0x20 MUL ADD DUP2 DUP2 MSTORE POP POP DUP3 PUSH1 0x0 ADD MLOAD DUP2 PUSH1 0x2 PUSH1 0x4 DUP2 LT PUSH2 0xDDB JUMPI PUSH2 0xDDA PUSH2 0x1979 JUMP JUMPDEST JUMPDEST PUSH1 0x20 MUL ADD DUP2 DUP2 MSTORE POP POP DUP3 PUSH1 0x20 ADD MLOAD DUP2 PUSH1 0x3 PUSH1 0x4 DUP2 LT PUSH2 0xDFD JUMPI PUSH2 0xDFC PUSH2 0x1979 JUMP JUMPDEST JUMPDEST PUSH1 0x20 MUL ADD DUP2 DUP2 MSTORE POP POP PUSH1 0x0 PUSH1 0x60 DUP4 PUSH1 0xC0 DUP5 PUSH1 0x6 PUSH2 0x7D0 GAS SUB STATICCALL SWAP1 POP DUP1 PUSH1 0x0 DUP2 EQ PUSH2 0xE26 JUMPI PUSH2 0xE28 JUMP JUMPDEST INVALID JUMPDEST POP DUP1 PUSH2 0xE69 JUMPI PUSH1 0x40 MLOAD PUSH32 0x8C379A000000000000000000000000000000000000000000000000000000000 DUP2 MSTORE PUSH1 0x4 ADD PUSH2 0xE60 SWAP1 PUSH2 0x1C17 JUMP JUMPDEST PUSH1 0x40 MLOAD DUP1 SWAP2 SUB SWAP1 REVERT JUMPDEST POP POP SWAP3 SWAP2 POP POP JUMP JUMPDEST PUSH2 0xE79 PUSH2 0x1524 JUMP JUMPDEST PUSH1 0x0 PUSH32 0x30644E72E131A029B85045B68181585D97816A916871CA8D3C208C16D87CFD47 SWAP1 POP PUSH1 0x0 DUP4 PUSH1 0x0 ADD MLOAD EQ DUP1 ISZERO PUSH2 0xEB6 JUMPI POP PUSH1 0x0 DUP4 PUSH1 0x20 ADD MLOAD EQ JUMPDEST ISZERO PUSH2 0xEDA JUMPI PUSH1 0x40 MLOAD DUP1 PUSH1 0x40 ADD PUSH1 0x40 MSTORE DUP1 PUSH1 0x0 DUP2 MSTORE PUSH1 0x20 ADD PUSH1 0x0 DUP2 MSTORE POP SWAP2 POP POP PUSH2 0xF11 JUMP JUMPDEST PUSH1 0x40 MLOAD DUP1 PUSH1 0x40 ADD PUSH1 0x40 MSTORE DUP1 DUP5 PUSH1 0x0 ADD MLOAD DUP2 MSTORE PUSH1 0x20 ADD DUP3 DUP6 PUSH1 0x20 ADD MLOAD PUSH2 0xEFF SWAP2 SWAP1 PUSH2 0x1C66 JUMP JUMPDEST DUP4 PUSH2 0xF0A SWAP2 SWAP1 PUSH2 0x1C97 JUMP JUMPDEST DUP2 MSTORE POP SWAP2 POP POP JUMPDEST SWAP2 SWAP1 POP JUMP JUMPDEST PUSH1 0x0 DUP1 PUSH1 0x4 PUSH8 0xFFFFFFFFFFFFFFFF DUP2 GT ISZERO PUSH2 0xF34 JUMPI PUSH2 0xF33 PUSH2 0x1611 JUMP JUMPDEST JUMPDEST PUSH1 0x40 MLOAD SWAP1 DUP1 DUP3 MSTORE DUP1 PUSH1 0x20 MUL PUSH1 0x20 ADD DUP3 ADD PUSH1 0x40 MSTORE DUP1 ISZERO PUSH2 0xF6D JUMPI DUP2 PUSH1 0x20 ADD JUMPDEST PUSH2 0xF5A PUSH2 0x1524 JUMP JUMPDEST DUP2 MSTORE PUSH1 0x20 ADD SWAP1 PUSH1 0x1 SWAP1 SUB SWAP1 DUP2 PUSH2 0xF52 JUMPI SWAP1 POP JUMPDEST POP SWAP1 POP PUSH1 0x0 PUSH1 0x4 PUSH8 0xFFFFFFFFFFFFFFFF DUP2 GT ISZERO PUSH2 0xF8D JUMPI PUSH2 0xF8C PUSH2 0x1611 JUMP JUMPDEST JUMPDEST PUSH1 0x40 MLOAD SWAP1 DUP1 DUP3 MSTORE DUP1 PUSH1 0x20 MUL PUSH1 0x20 ADD DUP3 ADD PUSH1 0x40 MSTORE DUP1 ISZERO PUSH2 0xFC6 JUMPI DUP2 PUSH1 0x20 ADD JUMPDEST PUSH2 0xFB3 PUSH2 0x1582 JUMP JUMPDEST DUP2 MSTORE PUSH1 0x20 ADD SWAP1 PUSH1 0x1 SWAP1 SUB SWAP1 DUP2 PUSH2 0xFAB JUMPI SWAP1 POP JUMPDEST POP SWAP1 POP DUP11 DUP3 PUSH1 0x0 DUP2 MLOAD DUP2 LT PUSH2 0xFDE JUMPI PUSH2 0xFDD PUSH2 0x1979 JUMP JUMPDEST JUMPDEST PUSH1 0x20 MUL PUSH1 0x20 ADD ADD DUP2 SWAP1 MSTORE POP DUP9 DUP3 PUSH1 0x1 DUP2 MLOAD DUP2 LT PUSH2 0xFFE JUMPI PUSH2 0xFFD PUSH2 0x1979 JUMP JUMPDEST JUMPDEST PUSH1 0x20 MUL PUSH1 0x20 ADD ADD DUP2 SWAP1 MSTORE POP DUP7 DUP3 PUSH1 0x2 DUP2 MLOAD DUP2 LT PUSH2 0x101E JUMPI PUSH2 0x101D PUSH2 0x1979 JUMP JUMPDEST JUMPDEST PUSH1 0x20 MUL PUSH1 0x20 ADD ADD DUP2 SWAP1 MSTORE POP DUP5 DUP3 PUSH1 0x3 DUP2 MLOAD DUP2 LT PUSH2 0x103E JUMPI PUSH2 0x103D PUSH2 0x1979 JUMP JUMPDEST JUMPDEST PUSH1 0x20 MUL PUSH1 0x20 ADD ADD DUP2 SWAP1 MSTORE POP DUP10 DUP2 PUSH1 0x0 DUP2 MLOAD DUP2 LT PUSH2 0x105E JUMPI PUSH2 0x105D PUSH2 0x1979 JUMP JUMPDEST JUMPDEST PUSH1 0x20 MUL PUSH1 0x20 ADD ADD DUP2 SWAP1 MSTORE POP DUP8 DUP2 PUSH1 0x1 DUP2 MLOAD DUP2 LT PUSH2 0x107E JUMPI PUSH2 0x107D PUSH2 0x1979 JUMP JUMPDEST JUMPDEST PUSH1 0x20 MUL PUSH1 0x20 ADD ADD DUP2 SWAP1 MSTORE POP DUP6 DUP2 PUSH1 0x2 DUP2 MLOAD DUP2 LT PUSH2 0x109E JUMPI PUSH2 0x109D PUSH2 0x1979 JUMP JUMPDEST JUMPDEST PUSH1 0x20 MUL PUSH1 0x20 ADD ADD DUP2 SWAP1 MSTORE POP DUP4 DUP2 PUSH1 0x3 DUP2 MLOAD DUP2 LT PUSH2 0x10BE JUMPI PUSH2 0x10BD PUSH2 0x1979 JUMP JUMPDEST JUMPDEST PUSH1 0x20 MUL PUSH1 0x20 ADD ADD DUP2 SWAP1 MSTORE POP PUSH2 0x10D3 DUP3 DUP3 PUSH2 0x10E3 JUMP JUMPDEST SWAP3 POP POP POP SWAP9 SWAP8 POP POP POP POP POP POP POP POP JUMP JUMPDEST PUSH1 0x0 DUP2 MLOAD DUP4 MLOAD EQ PUSH2 0x1129 JUMPI PUSH1 0x40 MLOAD PUSH32 0x8C379A000000000000000000000000000000000000000000000000000000000 DUP2 MSTORE PUSH1 0x4 ADD PUSH2 0x1120 SWAP1 PUSH2 0x1D17 JUMP JUMPDEST PUSH1 0x40 MLOAD DUP1 SWAP2 SUB SWAP1 REVERT JUMPDEST PUSH1 0x0 DUP4 MLOAD SWAP1 POP PUSH1 0x0 PUSH1 0x6 DUP3 PUSH2 0x113E SWAP2 SWAP1 PUSH2 0x1D37 JUMP JUMPDEST SWAP1 POP PUSH1 0x0 DUP2 PUSH8 0xFFFFFFFFFFFFFFFF DUP2 GT ISZERO PUSH2 0x115C JUMPI PUSH2 0x115B PUSH2 0x1611 JUMP JUMPDEST JUMPDEST PUSH1 0x40 MLOAD SWAP1 DUP1 DUP3 MSTORE DUP1 PUSH1 0x20 MUL PUSH1 0x20 ADD DUP3 ADD PUSH1 0x40 MSTORE DUP1 ISZERO PUSH2 0x118A JUMPI DUP2 PUSH1 0x20 ADD PUSH1 0x20 DUP3 MUL DUP1 CALLDATASIZE DUP4 CALLDATACOPY DUP1 DUP3 ADD SWAP2 POP POP SWAP1 POP JUMPDEST POP SWAP1 POP PUSH1 0x0 JUMPDEST DUP4 DUP2 LT ISZERO PUSH2 0x140F JUMPI DUP7 DUP2 DUP2 MLOAD DUP2 LT PUSH2 0x11AB JUMPI PUSH2 0x11AA PUSH2 0x1979 JUMP JUMPDEST JUMPDEST PUSH1 0x20 MUL PUSH1 0x20 ADD ADD MLOAD PUSH1 0x0 ADD MLOAD DUP3 PUSH1 0x0 PUSH1 0x6 DUP5 PUSH2 0x11C7 SWAP2 SWAP1 PUSH2 0x1D37 JUMP JUMPDEST PUSH2 0x11D1 SWAP2 SWAP1 PUSH2 0x1A20 JUMP JUMPDEST DUP2 MLOAD DUP2 LT PUSH2 0x11E2 JUMPI PUSH2 0x11E1 PUSH2 0x1979 JUMP JUMPDEST JUMPDEST PUSH1 0x20 MUL PUSH1 0x20 ADD ADD DUP2 DUP2 MSTORE POP POP DUP7 DUP2 DUP2 MLOAD DUP2 LT PUSH2 0x1201 JUMPI PUSH2 0x1200 PUSH2 0x1979 JUMP JUMPDEST JUMPDEST PUSH1 0x20 MUL PUSH1 0x20 ADD ADD MLOAD PUSH1 0x20 ADD MLOAD DUP3 PUSH1 0x1 PUSH1 0x6 DUP5 PUSH2 0x121D SWAP2 SWAP1 PUSH2 0x1D37 JUMP JUMPDEST PUSH2 0x1227 SWAP2 SWAP1 PUSH2 0x1A20 JUMP JUMPDEST DUP2 MLOAD DUP2 LT PUSH2 0x1238 JUMPI PUSH2 0x1237 PUSH2 0x1979 JUMP JUMPDEST JUMPDEST PUSH1 0x20 MUL PUSH1 0x20 ADD ADD DUP2 DUP2 MSTORE POP POP DUP6 DUP2 DUP2 MLOAD DUP2 LT PUSH2 0x1257 JUMPI PUSH2 0x1256 PUSH2 0x1979 JUMP JUMPDEST JUMPDEST PUSH1 0x20 MUL PUSH1 0x20 ADD ADD MLOAD PUSH1 0x0 ADD MLOAD PUSH1 0x0 PUSH1 0x2 DUP2 LT PUSH2 0x1276 JUMPI PUSH2 0x1275 PUSH2 0x1979 JUMP JUMPDEST JUMPDEST PUSH1 0x20 MUL ADD MLOAD DUP3 PUSH1 0x2 PUSH1 0x6 DUP5 PUSH2 0x128B SWAP2 SWAP1 PUSH2 0x1D37 JUMP JUMPDEST PUSH2 0x1295 SWAP2 SWAP1 PUSH2 0x1A20 JUMP JUMPDEST DUP2 MLOAD DUP2 LT PUSH2 0x12A6 JUMPI PUSH2 0x12A5 PUSH2 0x1979 JUMP JUMPDEST JUMPDEST PUSH1 0x20 MUL PUSH1 0x20 ADD ADD DUP2 DUP2 MSTORE POP POP DUP6 DUP2 DUP2 MLOAD DUP2 LT PUSH2 0x12C5 JUMPI PUSH2 0x12C4 PUSH2 0x1979 JUMP JUMPDEST JUMPDEST PUSH1 0x20 MUL PUSH1 0x20 ADD ADD MLOAD PUSH1 0x0 ADD MLOAD PUSH1 0x1 PUSH1 0x2 DUP2 LT PUSH2 0x12E4 JUMPI PUSH2 0x12E3 PUSH2 0x1979 JUMP JUMPDEST JUMPDEST PUSH1 0x20 MUL ADD MLOAD DUP3 PUSH1 0x3 PUSH1 0x6 DUP5 PUSH2 0x12F9 SWAP2 SWAP1 PUSH2 0x1D37 JUMP JUMPDEST PUSH2 0x1303 SWAP2 SWAP1 PUSH2 0x1A20 JUMP JUMPDEST DUP2 MLOAD DUP2 LT PUSH2 0x1314 JUMPI PUSH2 0x1313 PUSH2 0x1979 JUMP JUMPDEST JUMPDEST PUSH1 0x20 MUL PUSH1 0x20 ADD ADD DUP2 DUP2 MSTORE POP POP DUP6 DUP2 DUP2 MLOAD DUP2 LT PUSH2 0x1333 JUMPI PUSH2 0x1332 PUSH2 0x1979 JUMP JUMPDEST JUMPDEST PUSH1 0x20 MUL PUSH1 0x20 ADD ADD MLOAD PUSH1 0x20 ADD MLOAD PUSH1 0x0 PUSH1 0x2 DUP2 LT PUSH2 0x1352 JUMPI PUSH2 0x1351 PUSH2 0x1979 JUMP JUMPDEST JUMPDEST PUSH1 0x20 MUL ADD MLOAD DUP3 PUSH1 0x4 PUSH1 0x6 DUP5 PUSH2 0x1367 SWAP2 SWAP1 PUSH2 0x1D37 JUMP JUMPDEST PUSH2 0x1371 SWAP2 SWAP1 PUSH2 0x1A20 JUMP JUMPDEST DUP2 MLOAD DUP2 LT PUSH2 0x1382 JUMPI PUSH2 0x1381 PUSH2 0x1979 JUMP JUMPDEST JUMPDEST PUSH1 0x20 MUL PUSH1 0x20 ADD ADD DUP2 DUP2 MSTORE POP POP DUP6 DUP2 DUP2 MLOAD DUP2 LT PUSH2 0x13A1 JUMPI PUSH2 0x13A0 PUSH2 0x1979 JUMP JUMPDEST JUMPDEST PUSH1 0x20 MUL PUSH1 0x20 ADD ADD MLOAD PUSH1 0x20 ADD MLOAD PUSH1 0x1 PUSH1 0x2 DUP2 LT PUSH2 0x13C0 JUMPI PUSH2 0x13BF PUSH2 0x1979 JUMP JUMPDEST JUMPDEST PUSH1 0x20 MUL ADD MLOAD DUP3 PUSH1 0x5 PUSH1 0x6 DUP5 PUSH2 0x13D5 SWAP2 SWAP1 PUSH2 0x1D37 JUMP JUMPDEST PUSH2 0x13DF SWAP2 SWAP1 PUSH2 0x1A20 JUMP JUMPDEST DUP2 MLOAD DUP2 LT PUSH2 0x13F0 JUMPI PUSH2 0x13EF PUSH2 0x1979 JUMP JUMPDEST JUMPDEST PUSH1 0x20 MUL PUSH1 0x20 ADD ADD DUP2 DUP2 MSTORE POP POP DUP1 DUP1 PUSH2 0x1407 SWAP1 PUSH2 0x19D7 JUMP JUMPDEST SWAP2 POP POP PUSH2 0x1190 JUMP JUMPDEST POP PUSH2 0x1418 PUSH2 0x15A8 JUMP JUMPDEST PUSH1 0x0 PUSH1 0x20 DUP3 PUSH1 0x20 DUP7 MUL PUSH1 0x20 DUP7 ADD PUSH1 0x8 PUSH2 0x7D0 GAS SUB STATICCALL SWAP1 POP DUP1 PUSH1 0x0 DUP2 EQ PUSH2 0x143D JUMPI PUSH2 0x143F JUMP JUMPDEST INVALID JUMPDEST POP DUP1 PUSH2 0x1480 JUMPI PUSH1 0x40 MLOAD PUSH32 0x8C379A000000000000000000000000000000000000000000000000000000000 DUP2 MSTORE PUSH1 0x4 ADD PUSH2 0x1477 SWAP1 PUSH2 0x1DDD JUMP JUMPDEST PUSH1 0x40 MLOAD DUP1 SWAP2 SUB SWAP1 REVERT JUMPDEST PUSH1 0x0 DUP3 PUSH1 0x0 PUSH1 0x1 DUP2 LT PUSH2 0x1496 JUMPI PUSH2 0x1495 PUSH2 0x1979 JUMP JUMPDEST JUMPDEST PUSH1 0x20 MUL ADD MLOAD EQ ISZERO SWAP6 POP POP POP POP POP POP SWAP3 SWAP2 POP POP JUMP JUMPDEST PUSH1 0x40 MLOAD DUP1 PUSH1 0x60 ADD PUSH1 0x40 MSTORE DUP1 PUSH2 0x14BD PUSH2 0x1524 JUMP JUMPDEST DUP2 MSTORE PUSH1 0x20 ADD PUSH2 0x14CA PUSH2 0x1582 JUMP JUMPDEST DUP2 MSTORE PUSH1 0x20 ADD PUSH2 0x14D7 PUSH2 0x1524 JUMP JUMPDEST DUP2 MSTORE POP SWAP1 JUMP JUMPDEST PUSH1 0x40 MLOAD DUP1 PUSH1 0xA0 ADD PUSH1 0x40 MSTORE DUP1 PUSH2 0x14F0 PUSH2 0x1524 JUMP JUMPDEST DUP2 MSTORE PUSH1 0x20 ADD PUSH2 0x14FD PUSH2 0x1582 JUMP JUMPDEST DUP2 MSTORE PUSH1 0x20 ADD PUSH2 0x150A PUSH2 0x1582 JUMP JUMPDEST DUP2 MSTORE PUSH1 0x20 ADD PUSH2 0x1517 PUSH2 0x1582 JUMP JUMPDEST DUP2 MSTORE PUSH1 0x20 ADD PUSH1 0x60 DUP2 MSTORE POP SWAP1 JUMP JUMPDEST PUSH1 0x40 MLOAD DUP1 PUSH1 0x40 ADD PUSH1 0x40 MSTORE DUP1 PUSH1 0x0 DUP2 MSTORE PUSH1 0x20 ADD PUSH1 0x0 DUP2 MSTORE POP SWAP1 JUMP JUMPDEST PUSH1 0x40 MLOAD DUP1 PUSH1 0x60 ADD PUSH1 0x40 MSTORE DUP1 PUSH1 0x3 SWAP1 PUSH1 0x20 DUP3 MUL DUP1 CALLDATASIZE DUP4 CALLDATACOPY DUP1 DUP3 ADD SWAP2 POP POP SWAP1 POP POP SWAP1 JUMP JUMPDEST PUSH1 0x40 MLOAD DUP1 PUSH1 0x80 ADD PUSH1 0x40 MSTORE DUP1 PUSH1 0x4 SWAP1 PUSH1 0x20 DUP3 MUL DUP1 CALLDATASIZE DUP4 CALLDATACOPY DUP1 DUP3 ADD SWAP2 POP POP SWAP1 POP POP SWAP1 JUMP JUMPDEST PUSH1 0x40 MLOAD DUP1 PUSH1 0x40 ADD PUSH1 0x40 MSTORE DUP1 PUSH2 0x1595 PUSH2 0x15CA JUMP JUMPDEST DUP2 MSTORE PUSH1 0x20 ADD PUSH2 0x15A2 PUSH2 0x15CA JUMP JUMPDEST DUP2 MSTORE POP SWAP1 JUMP JUMPDEST PUSH1 0x40 MLOAD DUP1 PUSH1 0x20 ADD PUSH1 0x40 MSTORE DUP1 PUSH1 0x1 SWAP1 PUSH1 0x20 DUP3 MUL DUP1 CALLDATASIZE DUP4 CALLDATACOPY DUP1 DUP3 ADD SWAP2 POP POP SWAP1 POP POP SWAP1 JUMP JUMPDEST PUSH1 0x40 MLOAD DUP1 PUSH1 0x40 ADD PUSH1 0x40 MSTORE DUP1 PUSH1 0x2 SWAP1 PUSH1 0x20 DUP3 MUL DUP1 CALLDATASIZE DUP4 CALLDATACOPY DUP1 DUP3 ADD SWAP2 POP POP SWAP1 POP POP SWAP1 JUMP JUMPDEST PUSH1 0x0 PUSH1 0x40 MLOAD SWAP1 POP SWAP1 JUMP JUMPDEST PUSH1 0x0 DUP1 REVERT JUMPDEST PUSH1 0x0 DUP1 REVERT JUMPDEST PUSH1 0x0 PUSH1 0x1F NOT PUSH1 0x1F DUP4 ADD AND SWAP1 POP SWAP2 SWAP1 POP JUMP JUMPDEST PUSH32 0x4E487B7100000000000000000000000000000000000000000000000000000000 PUSH1 0x0 MSTORE PUSH1 0x41 PUSH1 0x4 MSTORE PUSH1 0x24 PUSH1 0x0 REVERT JUMPDEST PUSH2 0x1649 DUP3 PUSH2 0x1600 JUMP JUMPDEST DUP2 ADD DUP2 DUP2 LT PUSH8 0xFFFFFFFFFFFFFFFF DUP3 GT OR ISZERO PUSH2 0x1668 JUMPI PUSH2 0x1667 PUSH2 0x1611 JUMP JUMPDEST JUMPDEST DUP1 PUSH1 0x40 MSTORE POP POP POP JUMP JUMPDEST PUSH1 0x0 PUSH2 0x167B PUSH2 0x15EC JUMP JUMPDEST SWAP1 POP PUSH2 0x1687 DUP3 DUP3 PUSH2 0x1640 JUMP JUMPDEST SWAP2 SWAP1 POP JUMP JUMPDEST PUSH1 0x0 PUSH8 0xFFFFFFFFFFFFFFFF DUP3 GT ISZERO PUSH2 0x16A7 JUMPI PUSH2 0x16A6 PUSH2 0x1611 JUMP JUMPDEST JUMPDEST PUSH1 0x20 DUP3 MUL SWAP1 POP SWAP2 SWAP1 POP JUMP JUMPDEST PUSH1 0x0 DUP1 REVERT JUMPDEST PUSH1 0x0 DUP2 SWAP1 POP SWAP2 SWAP1 POP JUMP JUMPDEST PUSH2 0x16CA DUP2 PUSH2 0x16B7 JUMP JUMPDEST DUP2 EQ PUSH2 0x16D5 JUMPI PUSH1 0x0 DUP1 REVERT JUMPDEST POP JUMP JUMPDEST PUSH1 0x0 DUP2 CALLDATALOAD SWAP1 POP PUSH2 0x16E7 DUP2 PUSH2 0x16C1 JUMP JUMPDEST SWAP3 SWAP2 POP POP JUMP JUMPDEST PUSH1 0x0 PUSH2 0x1700 PUSH2 0x16FB DUP5 PUSH2 0x168C JUMP JUMPDEST PUSH2 0x1671 JUMP JUMPDEST SWAP1 POP DUP1 PUSH1 0x20 DUP5 MUL DUP4 ADD DUP6 DUP2 GT ISZERO PUSH2 0x171A JUMPI PUSH2 0x1719 PUSH2 0x16B2 JUMP JUMPDEST JUMPDEST DUP4 JUMPDEST DUP2 DUP2 LT ISZERO PUSH2 0x1743 JUMPI DUP1 PUSH2 0x172F DUP9 DUP3 PUSH2 0x16D8 JUMP JUMPDEST DUP5 MSTORE PUSH1 0x20 DUP5 ADD SWAP4 POP POP PUSH1 0x20 DUP2 ADD SWAP1 POP PUSH2 0x171C JUMP JUMPDEST POP POP POP SWAP4 SWAP3 POP POP POP JUMP JUMPDEST PUSH1 0x0 DUP3 PUSH1 0x1F DUP4 ADD SLT PUSH2 0x1762 JUMPI PUSH2 0x1761 PUSH2 0x15FB JUMP JUMPDEST JUMPDEST PUSH1 0x2 PUSH2 0x176F DUP5 DUP3 DUP6 PUSH2 0x16ED JUMP JUMPDEST SWAP2 POP POP SWAP3 SWAP2 POP POP JUMP JUMPDEST PUSH1 0x0 PUSH8 0xFFFFFFFFFFFFFFFF DUP3 GT ISZERO PUSH2 0x1793 JUMPI PUSH2 0x1792 PUSH2 0x1611 JUMP JUMPDEST JUMPDEST PUSH1 0x20 DUP3 MUL SWAP1 POP SWAP2 SWAP1 POP JUMP JUMPDEST PUSH1 0x0 PUSH2 0x17B1 PUSH2 0x17AC DUP5 PUSH2 0x1778 JUMP JUMPDEST PUSH2 0x1671 JUMP JUMPDEST SWAP1 POP DUP1 PUSH1 0x40 DUP5 MUL DUP4 ADD DUP6 DUP2 GT ISZERO PUSH2 0x17CB JUMPI PUSH2 0x17CA PUSH2 0x16B2 JUMP JUMPDEST JUMPDEST DUP4 JUMPDEST DUP2 DUP2 LT ISZERO PUSH2 0x17F4 JUMPI DUP1 PUSH2 0x17E0 DUP9 DUP3 PUSH2 0x174D JUMP JUMPDEST DUP5 MSTORE PUSH1 0x20 DUP5 ADD SWAP4 POP POP PUSH1 0x40 DUP2 ADD SWAP1 POP PUSH2 0x17CD JUMP JUMPDEST POP POP POP SWAP4 SWAP3 POP POP POP JUMP JUMPDEST PUSH1 0x0 DUP3 PUSH1 0x1F DUP4 ADD SLT PUSH2 0x1813 JUMPI PUSH2 0x1812 PUSH2 0x15FB JUMP JUMPDEST JUMPDEST PUSH1 0x2 PUSH2 0x1820 DUP5 DUP3 DUP6 PUSH2 0x179E JUMP JUMPDEST SWAP2 POP POP SWAP3 SWAP2 POP POP JUMP JUMPDEST PUSH1 0x0 PUSH8 0xFFFFFFFFFFFFFFFF DUP3 GT ISZERO PUSH2 0x1844 JUMPI PUSH2 0x1843 PUSH2 0x1611 JUMP JUMPDEST JUMPDEST PUSH1 0x20 DUP3 MUL SWAP1 POP SWAP2 SWAP1 POP JUMP JUMPDEST PUSH1 0x0 PUSH2 0x1862 PUSH2 0x185D DUP5 PUSH2 0x1829 JUMP JUMPDEST PUSH2 0x1671 JUMP JUMPDEST SWAP1 POP DUP1 PUSH1 0x20 DUP5 MUL DUP4 ADD DUP6 DUP2 GT ISZERO PUSH2 0x187C JUMPI PUSH2 0x187B PUSH2 0x16B2 JUMP JUMPDEST JUMPDEST DUP4 JUMPDEST DUP2 DUP2 LT ISZERO PUSH2 0x18A5 JUMPI DUP1 PUSH2 0x1891 DUP9 DUP3 PUSH2 0x16D8 JUMP JUMPDEST DUP5 MSTORE PUSH1 0x20 DUP5 ADD SWAP4 POP POP PUSH1 0x20 DUP2 ADD SWAP1 POP PUSH2 0x187E JUMP JUMPDEST POP POP POP SWAP4 SWAP3 POP POP POP JUMP JUMPDEST PUSH1 0x0 DUP3 PUSH1 0x1F DUP4 ADD SLT PUSH2 0x18C4 JUMPI PUSH2 0x18C3 PUSH2 0x15FB JUMP JUMPDEST JUMPDEST PUSH1 0x9 PUSH2 0x18D1 DUP5 DUP3 DUP6 PUSH2 0x184F JUMP JUMPDEST SWAP2 POP POP SWAP3 SWAP2 POP POP JUMP JUMPDEST PUSH1 0x0 DUP1 PUSH1 0x0 DUP1 PUSH2 0x220 DUP6 DUP8 SUB SLT ISZERO PUSH2 0x18F5 JUMPI PUSH2 0x18F4 PUSH2 0x15F6 JUMP JUMPDEST JUMPDEST PUSH1 0x0 PUSH2 0x1903 DUP8 DUP3 DUP9 ADD PUSH2 0x174D JUMP JUMPDEST SWAP5 POP POP PUSH1 0x40 PUSH2 0x1914 DUP8 DUP3 DUP9 ADD PUSH2 0x17FE JUMP JUMPDEST SWAP4 POP POP PUSH1 0xC0 PUSH2 0x1925 DUP8 DUP3 DUP9 ADD PUSH2 0x174D JUMP JUMPDEST SWAP3 POP POP PUSH2 0x100 PUSH2 0x1937 DUP8 DUP3 DUP9 ADD PUSH2 0x18AF JUMP JUMPDEST SWAP2 POP POP SWAP3 SWAP6 SWAP2 SWAP5 POP SWAP3 POP JUMP JUMPDEST PUSH1 0x0 DUP2 ISZERO ISZERO SWAP1 POP SWAP2 SWAP1 POP JUMP JUMPDEST PUSH2 0x1958 DUP2 PUSH2 0x1943 JUMP JUMPDEST DUP3 MSTORE POP POP JUMP JUMPDEST PUSH1 0x0 PUSH1 0x20 DUP3 ADD SWAP1 POP PUSH2 0x1973 PUSH1 0x0 DUP4 ADD DUP5 PUSH2 0x194F JUMP JUMPDEST SWAP3 SWAP2 POP POP JUMP JUMPDEST PUSH32 0x4E487B7100000000000000000000000000000000000000000000000000000000 PUSH1 0x0 MSTORE PUSH1 0x32 PUSH1 0x4 MSTORE PUSH1 0x24 PUSH1 0x0 REVERT JUMPDEST PUSH32 0x4E487B7100000000000000000000000000000000000000000000000000000000 PUSH1 0x0 MSTORE PUSH1 0x11 PUSH1 0x4 MSTORE PUSH1 0x24 PUSH1 0x0 REVERT JUMPDEST PUSH1 0x0 PUSH2 0x19E2 DUP3 PUSH2 0x16B7 JUMP JUMPDEST SWAP2 POP PUSH32 0xFFFFFFFFFFFFFFFFFFFFFFFFFFFFFFFFFFFFFFFFFFFFFFFFFFFFFFFFFFFFFFFF DUP3 EQ ISZERO PUSH2 0x1A15 JUMPI PUSH2 0x1A14 PUSH2 0x19A8 JUMP JUMPDEST JUMPDEST PUSH1 0x1 DUP3 ADD SWAP1 POP SWAP2 SWAP1 POP JUMP JUMPDEST PUSH1 0x0 PUSH2 0x1A2B DUP3 PUSH2 0x16B7 JUMP JUMPDEST SWAP2 POP PUSH2 0x1A36 DUP4 PUSH2 0x16B7 JUMP JUMPDEST SWAP3 POP DUP3 PUSH32 0xFFFFFFFFFFFFFFFFFFFFFFFFFFFFFFFFFFFFFFFFFFFFFFFFFFFFFFFFFFFFFFFF SUB DUP3 GT ISZERO PUSH2 0x1A6B JUMPI PUSH2 0x1A6A PUSH2 0x19A8 JUMP JUMPDEST JUMPDEST DUP3 DUP3 ADD SWAP1 POP SWAP3 SWAP2 POP POP JUMP JUMPDEST PUSH1 0x0 DUP3 DUP3 MSTORE PUSH1 0x20 DUP3 ADD SWAP1 POP SWAP3 SWAP2 POP POP JUMP JUMPDEST PUSH32 0x76657269666965722D6261642D696E7075740000000000000000000000000000 PUSH1 0x0 DUP3 ADD MSTORE POP JUMP JUMPDEST PUSH1 0x0 PUSH2 0x1ABD PUSH1 0x12 DUP4 PUSH2 0x1A76 JUMP JUMPDEST SWAP2 POP PUSH2 0x1AC8 DUP3 PUSH2 0x1A87 JUMP JUMPDEST PUSH1 0x20 DUP3 ADD SWAP1 POP SWAP2 SWAP1 POP JUMP JUMPDEST PUSH1 0x0 PUSH1 0x20 DUP3 ADD SWAP1 POP DUP2 DUP2 SUB PUSH1 0x0 DUP4 ADD MSTORE PUSH2 0x1AEC DUP2 PUSH2 0x1AB0 JUMP JUMPDEST SWAP1 POP SWAP2 SWAP1 POP JUMP JUMPDEST PUSH32 0x76657269666965722D6774652D736E61726B2D7363616C61722D6669656C6400 PUSH1 0x0 DUP3 ADD MSTORE POP JUMP JUMPDEST PUSH1 0x0 PUSH2 0x1B29 PUSH1 0x1F DUP4 PUSH2 0x1A76 JUMP JUMPDEST SWAP2 POP PUSH2 0x1B34 DUP3 PUSH2 0x1AF3 JUMP JUMPDEST PUSH1 0x20 DUP3 ADD SWAP1 POP SWAP2 SWAP1 POP JUMP JUMPDEST PUSH1 0x0 PUSH1 0x20 DUP3 ADD SWAP1 POP DUP2 DUP2 SUB PUSH1 0x0 DUP4 ADD MSTORE PUSH2 0x1B58 DUP2 PUSH2 0x1B1C JUMP JUMPDEST SWAP1 POP SWAP2 SWAP1 POP JUMP JUMPDEST PUSH32 0x70616972696E672D6D756C2D6661696C65640000000000000000000000000000 PUSH1 0x0 DUP3 ADD MSTORE POP JUMP JUMPDEST PUSH1 0x0 PUSH2 0x1B95 PUSH1 0x12 DUP4 PUSH2 0x1A76 JUMP JUMPDEST SWAP2 POP PUSH2 0x1BA0 DUP3 PUSH2 0x1B5F JUMP JUMPDEST PUSH1 0x20 DUP3 ADD SWAP1 POP SWAP2 SWAP1 POP JUMP JUMPDEST PUSH1 0x0 PUSH1 0x20 DUP3 ADD SWAP1 POP DUP2 DUP2 SUB PUSH1 0x0 DUP4 ADD MSTORE PUSH2 0x1BC4 DUP2 PUSH2 0x1B88 JUMP JUMPDEST SWAP1 POP SWAP2 SWAP1 POP JUMP JUMPDEST PUSH32 0x70616972696E672D6164642D6661696C65640000000000000000000000000000 PUSH1 0x0 DUP3 ADD MSTORE POP JUMP JUMPDEST PUSH1 0x0 PUSH2 0x1C01 PUSH1 0x12 DUP4 PUSH2 0x1A76 JUMP JUMPDEST SWAP2 POP PUSH2 0x1C0C DUP3 PUSH2 0x1BCB JUMP JUMPDEST PUSH1 0x20 DUP3 ADD SWAP1 POP SWAP2 SWAP1 POP JUMP JUMPDEST PUSH1 0x0 PUSH1 0x20 DUP3 ADD SWAP1 POP DUP2 DUP2 SUB PUSH1 0x0 DUP4 ADD MSTORE PUSH2 0x1C30 DUP2 PUSH2 0x1BF4 JUMP JUMPDEST SWAP1 POP SWAP2 SWAP1 POP JUMP JUMPDEST PUSH32 0x4E487B7100000000000000000000000000000000000000000000000000000000 PUSH1 0x0 MSTORE PUSH1 0x12 PUSH1 0x4 MSTORE PUSH1 0x24 PUSH1 0x0 REVERT JUMPDEST PUSH1 0x0 PUSH2 0x1C71 DUP3 PUSH2 0x16B7 JUMP JUMPDEST SWAP2 POP PUSH2 0x1C7C DUP4 PUSH2 0x16B7 JUMP JUMPDEST SWAP3 POP DUP3 PUSH2 0x1C8C JUMPI PUSH2 0x1C8B PUSH2 0x1C37 JUMP JUMPDEST JUMPDEST DUP3 DUP3 MOD SWAP1 POP SWAP3 SWAP2 POP POP JUMP JUMPDEST PUSH1 0x0 PUSH2 0x1CA2 DUP3 PUSH2 0x16B7 JUMP JUMPDEST SWAP2 POP PUSH2 0x1CAD DUP4 PUSH2 0x16B7 JUMP JUMPDEST SWAP3 POP DUP3 DUP3 LT ISZERO PUSH2 0x1CC0 JUMPI PUSH2 0x1CBF PUSH2 0x19A8 JUMP JUMPDEST JUMPDEST DUP3 DUP3 SUB SWAP1 POP SWAP3 SWAP2 POP POP JUMP JUMPDEST PUSH32 0x70616972696E672D6C656E677468732D6661696C656400000000000000000000 PUSH1 0x0 DUP3 ADD MSTORE POP JUMP JUMPDEST PUSH1 0x0 PUSH2 0x1D01 PUSH1 0x16 DUP4 PUSH2 0x1A76 JUMP JUMPDEST SWAP2 POP PUSH2 0x1D0C DUP3 PUSH2 0x1CCB JUMP JUMPDEST PUSH1 0x20 DUP3 ADD SWAP1 POP SWAP2 SWAP1 POP JUMP JUMPDEST PUSH1 0x0 PUSH1 0x20 DUP3 ADD SWAP1 POP DUP2 DUP2 SUB PUSH1 0x0 DUP4 ADD MSTORE PUSH2 0x1D30 DUP2 PUSH2 0x1CF4 JUMP JUMPDEST SWAP1 POP SWAP2 SWAP1 POP JUMP JUMPDEST PUSH1 0x0 PUSH2 0x1D42 DUP3 PUSH2 0x16B7 JUMP JUMPDEST SWAP2 POP PUSH2 0x1D4D DUP4 PUSH2 0x16B7 JUMP JUMPDEST SWAP3 POP DUP2 PUSH32 0xFFFFFFFFFFFFFFFFFFFFFFFFFFFFFFFFFFFFFFFFFFFFFFFFFFFFFFFFFFFFFFFF DIV DUP4 GT DUP3 ISZERO ISZERO AND ISZERO PUSH2 0x1D86 JUMPI PUSH2 0x1D85 PUSH2 0x19A8 JUMP JUMPDEST JUMPDEST DUP3 DUP3 MUL SWAP1 POP SWAP3 SWAP2 POP POP JUMP JUMPDEST PUSH32 0x70616972696E672D6F70636F64652D6661696C65640000000000000000000000 PUSH1 0x0 DUP3 ADD MSTORE POP JUMP JUMPDEST PUSH1 0x0 PUSH2 0x1DC7 PUSH1 0x15 DUP4 PUSH2 0x1A76 JUMP JUMPDEST SWAP2 POP PUSH2 0x1DD2 DUP3 PUSH2 0x1D91 JUMP JUMPDEST PUSH1 0x20 DUP3 ADD SWAP1 POP SWAP2 SWAP1 POP JUMP JUMPDEST PUSH1 0x0 PUSH1 0x20 DUP3 ADD SWAP1 POP DUP2 DUP2 SUB PUSH1 0x0 DUP4 ADD MSTORE PUSH2 0x1DF6 DUP2 PUSH2 0x1DBA JUMP JUMPDEST SWAP1 POP SWAP2 SWAP1 POP JUMP INVALID LOG2 PUSH5 0x6970667358 0x22 SLT KECCAK256 0x4D CALLVALUE 0xDB 0xAB PUSH8 0x2828BBB0783A9430 0xDE 0x4C 0xBD PUSH21 0x857B06FE880542F4E07DD900BA57BD64736F6C6343 STOP ADDMOD 0xC STOP CALLER "
        },
        "methodIdentifiers": {
          "verifyProof(uint256[2],uint256[2][2],uint256[2],uint256[9])": "c542c93b"
        }
      }
    }
  }
}